{
  "_format": "hh-sol-artifact-1",
  "contractName": "Users",
  "sourceName": "contracts/Users.sol",
  "abi": [
    {
      "anonymous": false,
      "inputs": [
        {
          "indexed": true,
          "internalType": "address",
          "name": "previousOwner",
          "type": "address"
        },
        {
          "indexed": true,
          "internalType": "address",
          "name": "newOwner",
          "type": "address"
        }
      ],
      "name": "OwnershipTransferred",
      "type": "event"
    },
    {
      "inputs": [
        {
          "internalType": "bytes32",
          "name": "_id",
          "type": "bytes32"
        }
      ],
      "name": "deleteUser",
      "outputs": [],
      "stateMutability": "nonpayable",
      "type": "function"
    },
    {
      "inputs": [
        {
          "internalType": "bytes32",
          "name": "_id",
          "type": "bytes32"
        },
        {
          "internalType": "string",
          "name": "_newName",
          "type": "string"
        },
        {
          "internalType": "string",
          "name": "_newPass",
          "type": "string"
        }
      ],
      "name": "editUser",
      "outputs": [],
      "stateMutability": "nonpayable",
      "type": "function"
    },
    {
      "inputs": [],
      "name": "getAllUsers",
      "outputs": [
        {
          "components": [
            {
              "internalType": "bytes32",
              "name": "id",
              "type": "bytes32"
            },
            {
              "internalType": "address",
              "name": "owner",
              "type": "address"
            },
            {
              "internalType": "string",
              "name": "name",
              "type": "string"
            },
            {
              "internalType": "string",
              "name": "password",
              "type": "string"
            },
            {
              "internalType": "uint256",
              "name": "dateCreated",
              "type": "uint256"
            },
            {
              "internalType": "uint256",
              "name": "dateModified",
              "type": "uint256"
            }
          ],
          "internalType": "struct User[]",
          "name": "",
          "type": "tuple[]"
        }
      ],
      "stateMutability": "view",
      "type": "function"
    },
    {
      "inputs": [
        {
          "internalType": "bytes32",
          "name": "_id",
          "type": "bytes32"
        }
      ],
      "name": "getUser",
      "outputs": [
        {
          "components": [
            {
              "internalType": "bytes32",
              "name": "id",
              "type": "bytes32"
            },
            {
              "internalType": "address",
              "name": "owner",
              "type": "address"
            },
            {
              "internalType": "string",
              "name": "name",
              "type": "string"
            },
            {
              "internalType": "string",
              "name": "password",
              "type": "string"
            },
            {
              "internalType": "uint256",
              "name": "dateCreated",
              "type": "uint256"
            },
            {
              "internalType": "uint256",
              "name": "dateModified",
              "type": "uint256"
            }
          ],
          "internalType": "struct User",
          "name": "",
          "type": "tuple"
        }
      ],
      "stateMutability": "view",
      "type": "function"
    },
    {
      "inputs": [
        {
          "internalType": "bytes32[]",
          "name": "_ids",
          "type": "bytes32[]"
        }
      ],
      "name": "getUsers",
      "outputs": [
        {
          "components": [
            {
              "internalType": "bytes32",
              "name": "id",
              "type": "bytes32"
            },
            {
              "internalType": "address",
              "name": "owner",
              "type": "address"
            },
            {
              "internalType": "string",
              "name": "name",
              "type": "string"
            },
            {
              "internalType": "string",
              "name": "password",
              "type": "string"
            },
            {
              "internalType": "uint256",
              "name": "dateCreated",
              "type": "uint256"
            },
            {
              "internalType": "uint256",
              "name": "dateModified",
              "type": "uint256"
            }
          ],
          "internalType": "struct User[]",
          "name": "",
          "type": "tuple[]"
        }
      ],
      "stateMutability": "view",
      "type": "function"
    },
    {
      "inputs": [],
      "name": "initManager",
      "outputs": [],
      "stateMutability": "nonpayable",
      "type": "function"
    },
    {
      "inputs": [],
      "name": "initialize",
      "outputs": [],
      "stateMutability": "nonpayable",
      "type": "function"
    },
    {
      "inputs": [
        {
          "internalType": "string",
          "name": "_name",
          "type": "string"
        },
        {
          "internalType": "string",
          "name": "_password",
          "type": "string"
        },
        {
          "internalType": "address",
          "name": "_owner",
          "type": "address"
        }
      ],
      "name": "newUser",
      "outputs": [
        {
          "internalType": "bytes32",
          "name": "",
          "type": "bytes32"
        }
      ],
      "stateMutability": "nonpayable",
      "type": "function"
    },
    {
      "inputs": [],
      "name": "owner",
      "outputs": [
        {
          "internalType": "address",
          "name": "",
          "type": "address"
        }
      ],
      "stateMutability": "view",
      "type": "function"
    },
    {
      "inputs": [],
      "name": "renounceOwnership",
      "outputs": [],
      "stateMutability": "nonpayable",
      "type": "function"
    },
    {
      "inputs": [
        {
          "internalType": "address",
          "name": "newOwner",
          "type": "address"
        }
      ],
      "name": "transferOwnership",
      "outputs": [],
      "stateMutability": "nonpayable",
      "type": "function"
    }
  ],
  "bytecode": "0x608060405234801561001057600080fd5b50611b3d806100206000396000f3fe608060405234801561001057600080fd5b50600436106100a95760003560e01c80638129fc1c116100715780638129fc1c1461011c5780638da5cb5b146101245780638df9bf1014610139578063c905022d1461014c578063e2842d791461016c578063f2fde38b14610174576100a9565b80631f289157146100ae578063290a0b0b146100b85780635e5d4320146100e15780636517579c146100f4578063715018a614610114575b600080fd5b6100b6610187565b005b6100cb6100c636600461159e565b6101ea565b6040516100d89190611816565b60405180910390f35b6100b66100ef36600461163f565b6102be565b61010761010236600461163f565b6105ec565b6040516100d89190611a2c565b6100b66107e4565b6100b6610886565b61012c610930565b6040516100d89190611802565b6100b6610147366004611657565b61093f565b61015f61015a3660046116c1565b610c37565b6040516100d89190611876565b6100cb610e60565b6100b661018236600461157d565b611040565b60695460ff16156101b35760405162461bcd60e51b81526004016101aa90611993565b60405180910390fd5b6101bb611139565b606580546001600160a01b0319166001600160a01b03929092169190911790556069805460ff19166001179055565b6065546060906001600160a01b031633146102175760405162461bcd60e51b81526004016101aa90611927565b6000825167ffffffffffffffff8111801561023157600080fd5b5060405190808252806020026020018201604052801561026b57816020015b6102586113de565b8152602001906001900390816102505790505b50905060005b83518110156102b55761029684828151811061028957fe5b60200260200101516105ec565b8282815181106102a257fe5b6020908102919091010152600101610271565b5090505b919050565b6065546001600160a01b031633146102e85760405162461bcd60e51b81526004016101aa90611927565b60008181526068602052604090205460ff166103165760405162461bcd60e51b81526004016101aa906119c8565b6066805460009190600019810190811061032c57fe5b60009182526020918290206040805160c081018252600693909302909101805483526001808201546001600160a01b0316848601526002808301805485516101009482161594909402600019011691909104601f81018790048702830187018552808352949592949386019391929091908301828280156103ee5780601f106103c3576101008083540402835291602001916103ee565b820191906000526020600020905b8154815290600101906020018083116103d157829003601f168201915b505050918352505060038201805460408051602060026001851615610100026000190190941693909304601f81018490048402820184019092528181529382019392918301828280156104825780601f1061045757610100808354040283529160200191610482565b820191906000526020600020905b81548152906001019060200180831161046557829003601f168201915b505050505081526020016004820154815260200160058201548152505090508060666067600085815260200190815260200160002054815481106104c257fe5b6000918252602091829020835160069290920201908155828201516001820180546001600160a01b0319166001600160a01b0390921691909117905560408301518051919261051992600285019290910190611420565b5060608201518051610535916003840191602090910190611420565b506080820151600482015560a0909101516005909101556000828152606760205260408082205483518352912055606680548061056e57fe5b6000828152602081206006600019909301928302018181556001810180546001600160a01b0319169055906105a660028301826114ac565b6105b46003830160006114ac565b50600060048201819055600590910181905591559182525060676020908152604080832083905560689091529020805460ff19169055565b6105f46113de565b6065546001600160a01b0316331461061e5760405162461bcd60e51b81526004016101aa90611927565b60008281526068602052604090205460ff1661064c5760405162461bcd60e51b81526004016101aa9061195e565b60008281526067602052604090205460668054909190811061066a57fe5b60009182526020918290206040805160c081018252600693909302909101805483526001808201546001600160a01b0316848601526002808301805485516101009482161594909402600019011691909104601f810187900487028301870185528083529495929493860193919290919083018282801561072c5780601f106107015761010080835404028352916020019161072c565b820191906000526020600020905b81548152906001019060200180831161070f57829003601f168201915b505050918352505060038201805460408051602060026001851615610100026000190190941693909304601f81018490048402820184019092528181529382019392918301828280156107c05780601f10610795576101008083540402835291602001916107c0565b820191906000526020600020905b8154815290600101906020018083116107a357829003601f168201915b50505050508152602001600482015481526020016005820154815250509050919050565b6107ec611139565b6033546001600160a01b0390811691161461084e576040805162461bcd60e51b815260206004820181905260248201527f4f776e61626c653a2063616c6c6572206973206e6f7420746865206f776e6572604482015290519081900360640190fd5b6033546040516000916001600160a01b031690600080516020611ae8833981519152908390a3603380546001600160a01b0319169055565b600054610100900460ff168061089f575061089f61113d565b806108ad575060005460ff16155b6108e85760405162461bcd60e51b815260040180806020018281038252602e815260200180611aba602e913960400191505060405180910390fd5b600054610100900460ff16158015610913576000805460ff1961ff0019909116610100171660011790555b61091b611143565b801561092d576000805461ff00191690555b50565b6033546001600160a01b031690565b818160148251106109625760405162461bcd60e51b81526004016101aa906118d8565b600f8151116109835760405162461bcd60e51b81526004016101aa9061187f565b6065546001600160a01b031633146109ad5760405162461bcd60e51b81526004016101aa90611927565b60008581526068602052604090205460ff166109db5760405162461bcd60e51b81526004016101aa906119c8565b6000858152606760205260408120546066805490919081106109f957fe5b60009182526020918290206040805160c081018252600693909302909101805483526001808201546001600160a01b0316848601526002808301805485516101009482161594909402600019011691909104601f8101879004870283018701855280835294959294938601939192909190830182828015610abb5780601f10610a9057610100808354040283529160200191610abb565b820191906000526020600020905b815481529060010190602001808311610a9e57829003601f168201915b505050918352505060038201805460408051602060026001851615610100026000190190941693909304601f8101849004840282018401909252818152938201939291830182828015610b4f5780601f10610b2457610100808354040283529160200191610b4f565b820191906000526020600020905b815481529060010190602001808311610b3257829003601f168201915b50505091835250506004820154602080830191909152600590920154604091820152828101889052606083018790524260a0840152600089815260679092529020546066805492935083929091908110610ba557fe5b6000918252602091829020835160069290920201908155828201516001820180546001600160a01b0319166001600160a01b03909216919091179055604083015180519192610bfc92600285019290910190611420565b5060608201518051610c18916003840191602090910190611420565b506080820151600482015560a090910151600590910155505050505050565b600083836014825110610c5c5760405162461bcd60e51b81526004016101aa906118d8565b600f815111610c7d5760405162461bcd60e51b81526004016101aa9061187f565b6065546001600160a01b03163314610ca75760405162461bcd60e51b81526004016101aa90611927565b60004290506000610cda888332604051602001610cc6939291906117c9565b6040516020818303038152906040526111e0565b60008181526068602052604090205490915060ff1615610d0c5760405162461bcd60e51b81526004016101aa906119fa565b610d146113de565b8181526001600160a01b038781166020808401918252604084018c8152606085018c90526080850187905260a085018790526066805460018101825560009190915285517f46501879b8ca8525e8c2fd519e2fbfcfa2ebea26501294aa02cbfcfb12e94354600690920291820190815593517f46501879b8ca8525e8c2fd519e2fbfcfa2ebea26501294aa02cbfcfb12e94355820180546001600160a01b03191691909616179094555180518594610df2937f46501879b8ca8525e8c2fd519e2fbfcfa2ebea26501294aa02cbfcfb12e94356909101920190611420565b5060608201518051610e0e916003840191602090910190611420565b506080820151600482015560a090910151600590910155506066546000828152606760209081526040808320600019949094019093556068905220805460ff1916600117905593505050509392505050565b6065546060906001600160a01b03163314610e8d5760405162461bcd60e51b81526004016101aa90611927565b6066805480602002602001604051908101604052809291908181526020016000905b828210156110375760008481526020908190206040805160c08101825260068602909201805483526001808201546001600160a01b0316848601526002808301805485516101009482161594909402600019011691909104601f8101879004870283018701855280835294959294938601939192909190830182828015610f775780601f10610f4c57610100808354040283529160200191610f77565b820191906000526020600020905b815481529060010190602001808311610f5a57829003601f168201915b505050918352505060038201805460408051602060026001851615610100026000190190941693909304601f810184900484028201840190925281815293820193929183018282801561100b5780601f10610fe05761010080835404028352916020019161100b565b820191906000526020600020905b815481529060010190602001808311610fee57829003601f168201915b505050505081526020016004820154815260200160058201548152505081526020019060010190610eaf565b50505050905090565b611048611139565b6033546001600160a01b039081169116146110aa576040805162461bcd60e51b815260206004820181905260248201527f4f776e61626c653a2063616c6c6572206973206e6f7420746865206f776e6572604482015290519081900360640190fd5b6001600160a01b0381166110ef5760405162461bcd60e51b8152600401808060200182810382526026815260200180611a946026913960400191505060405180910390fd5b6033546040516001600160a01b03808416921690600080516020611ae883398151915290600090a3603380546001600160a01b0319166001600160a01b0392909216919091179055565b3390565b303b1590565b600054610100900460ff168061115c575061115c61113d565b8061116a575060005460ff16155b6111a55760405162461bcd60e51b815260040180806020018281038252602e815260200180611aba602e913960400191505060405180910390fd5b600054610100900460ff161580156111d0576000805460ff1961ff0019909116610100171660011790555b6111d8611257565b61091b6112f7565b6000816040516020018082805190602001908083835b602083106112155780518252601f1990920191602091820191016111f6565b6001836020036101000a038019825116818451168082178552505050505050905001915050604051602081830303815290604052805190602001209050919050565b600054610100900460ff1680611270575061127061113d565b8061127e575060005460ff16155b6112b95760405162461bcd60e51b815260040180806020018281038252602e815260200180611aba602e913960400191505060405180910390fd5b600054610100900460ff1615801561091b576000805460ff1961ff001990911661010017166001179055801561092d576000805461ff001916905550565b600054610100900460ff1680611310575061131061113d565b8061131e575060005460ff16155b6113595760405162461bcd60e51b815260040180806020018281038252602e815260200180611aba602e913960400191505060405180910390fd5b600054610100900460ff16158015611384576000805460ff1961ff0019909116610100171660011790555b600061138e611139565b603380546001600160a01b0319166001600160a01b03831690811790915560405191925090600090600080516020611ae8833981519152908290a350801561092d576000805461ff001916905550565b6040518060c001604052806000801916815260200160006001600160a01b03168152602001606081526020016060815260200160008152602001600081525090565b828054600181600116156101000203166002900490600052602060002090601f016020900481019282611456576000855561149c565b82601f1061146f57805160ff191683800117855561149c565b8280016001018555821561149c579182015b8281111561149c578251825591602001919060010190611481565b506114a89291506114ec565b5090565b50805460018160011615610100020316600290046000825580601f106114d2575061092d565b601f01602090049060005260206000209081019061092d91905b5b808211156114a857600081556001016114ed565b80356001600160a01b03811681146102b957600080fd5b600082601f830112611528578081fd5b813567ffffffffffffffff81111561153c57fe5b61154f601f8201601f1916602001611a3f565b818152846020838601011115611563578283fd5b816020850160208301379081016020019190915292915050565b60006020828403121561158e578081fd5b61159782611501565b9392505050565b600060208083850312156115b0578182fd5b823567ffffffffffffffff808211156115c7578384fd5b818501915085601f8301126115da578384fd5b8135818111156115e657fe5b83810291506115f6848301611a3f565b8181528481019084860184860187018a1015611610578788fd5b8795505b83861015611632578035835260019590950194918601918601611614565b5098975050505050505050565b600060208284031215611650578081fd5b5035919050565b60008060006060848603121561166b578182fd5b83359250602084013567ffffffffffffffff80821115611689578384fd5b61169587838801611518565b935060408601359150808211156116aa578283fd5b506116b786828701611518565b9150509250925092565b6000806000606084860312156116d5578283fd5b833567ffffffffffffffff808211156116ec578485fd5b6116f887838801611518565b9450602086013591508082111561170d578384fd5b5061171a86828701611518565b92505061172960408501611501565b90509250925092565b6000815180845261174a816020860160208601611a63565b601f01601f19169290920160200192915050565b60008151835260018060a01b036020830151166020840152604082015160c0604085015261178f60c0850182611732565b9050606083015184820360608601526117a88282611732565b9150506080830151608085015260a083015160a08501528091505092915050565b600084516117db818460208901611a63565b919091019283525060601b6bffffffffffffffffffffffff19166020820152603401919050565b6001600160a01b0391909116815260200190565b6000602080830181845280855180835260408601915060408482028701019250838701855b8281101561186957603f1988860301845261185785835161175e565b9450928501929085019060010161183b565b5092979650505050505050565b90815260200190565b60208082526039908201527f50617373776f7264206c656e677468206d757374206265206d6f7265207468616040820152786e20313520636861726163746572732028656e63727970742960381b606082015260800190565b6020808252602f908201527f557365726e616d65206c656e677468206d757374206265206c6573732074686160408201526e6e203230206368617261637465727360881b606082015260800190565b6020808252601f908201527f63616e206f6e6c792062652063616c6c65642066726f6d206d616e6167657200604082015260600190565b6020808252818101527f55736572206e6f742073746f72656420796574206f72206e6f7420666f756e64604082015260600190565b6020808252818101527f496e697469616c697a6174696f6e20616c726561647920636f6d706c65746564604082015260600190565b602080825260189082015277151a1a5cc81d5cd95c88191bd95cc81b9bdd08195e1a5cdd60421b604082015260600190565b60208082526018908201527755736572206e616d6520616c726561647920696e2075736560401b604082015260600190565b600060208252611597602083018461175e565b60405181810167ffffffffffffffff81118282101715611a5b57fe5b604052919050565b60005b83811015611a7e578181015183820152602001611a66565b83811115611a8d576000848401525b5050505056fe4f776e61626c653a206e6577206f776e657220697320746865207a65726f2061646472657373496e697469616c697a61626c653a20636f6e747261637420697320616c726561647920696e697469616c697a65648be0079c531659141344cd1fd0a4f28419497f9722a3daafe3b4186f6b6457e0a26469706673582212205f8163fcae7f5fa5cc96c5c7c1109d1770ddcbbe232f8e571cce0b3bcf1a586b64736f6c63430007060033",
  "linkReferences": {},
  "deployedLinkReferences": {}
}