{
  "_format": "hh-sol-artifact-1",
  "contractName": "MyToken",
  "sourceName": "contracts/MyToken.sol",
  "abi": [
    {
      "anonymous": false,
      "inputs": [
        {
          "indexed": true,
          "internalType": "address",
          "name": "owner",
          "type": "address"
        },
        {
          "indexed": true,
          "internalType": "address",
          "name": "spender",
          "type": "address"
        },
        {
          "indexed": false,
          "internalType": "uint256",
          "name": "value",
          "type": "uint256"
        }
      ],
      "name": "Approval",
      "type": "event"
    },
    {
      "anonymous": false,
      "inputs": [
        {
          "indexed": true,
          "internalType": "address",
          "name": "previousOwner",
          "type": "address"
        },
        {
          "indexed": true,
          "internalType": "address",
          "name": "newOwner",
          "type": "address"
        }
      ],
      "name": "OwnershipTransferred",
      "type": "event"
    },
    {
      "anonymous": false,
      "inputs": [
        {
          "indexed": true,
          "internalType": "address",
          "name": "tokenAddr",
          "type": "address"
        },
        {
          "indexed": true,
          "internalType": "address",
          "name": "byAccount",
          "type": "address"
        }
      ],
      "name": "TokenInitialized",
      "type": "event"
    },
    {
      "anonymous": false,
      "inputs": [
        {
          "indexed": true,
          "internalType": "address",
          "name": "from",
          "type": "address"
        },
        {
          "indexed": true,
          "internalType": "address",
          "name": "to",
          "type": "address"
        },
        {
          "indexed": false,
          "internalType": "uint256",
          "name": "value",
          "type": "uint256"
        }
      ],
      "name": "Transfer",
      "type": "event"
    },
    {
      "inputs": [
        {
          "internalType": "address",
          "name": "owner",
          "type": "address"
        },
        {
          "internalType": "address",
          "name": "spender",
          "type": "address"
        }
      ],
      "name": "allowance",
      "outputs": [
        {
          "internalType": "uint256",
          "name": "",
          "type": "uint256"
        }
      ],
      "stateMutability": "view",
      "type": "function"
    },
    {
      "inputs": [
        {
          "internalType": "address",
          "name": "spender",
          "type": "address"
        },
        {
          "internalType": "uint256",
          "name": "amount",
          "type": "uint256"
        }
      ],
      "name": "approve",
      "outputs": [
        {
          "internalType": "bool",
          "name": "",
          "type": "bool"
        }
      ],
      "stateMutability": "nonpayable",
      "type": "function"
    },
    {
      "inputs": [
        {
          "internalType": "address",
          "name": "account",
          "type": "address"
        }
      ],
      "name": "balanceOf",
      "outputs": [
        {
          "internalType": "uint256",
          "name": "",
          "type": "uint256"
        }
      ],
      "stateMutability": "view",
      "type": "function"
    },
    {
      "inputs": [],
      "name": "decimals",
      "outputs": [
        {
          "internalType": "uint8",
          "name": "",
          "type": "uint8"
        }
      ],
      "stateMutability": "view",
      "type": "function"
    },
    {
      "inputs": [
        {
          "internalType": "address",
          "name": "spender",
          "type": "address"
        },
        {
          "internalType": "uint256",
          "name": "subtractedValue",
          "type": "uint256"
        }
      ],
      "name": "decreaseAllowance",
      "outputs": [
        {
          "internalType": "bool",
          "name": "",
          "type": "bool"
        }
      ],
      "stateMutability": "nonpayable",
      "type": "function"
    },
    {
      "inputs": [
        {
          "internalType": "address",
          "name": "spender",
          "type": "address"
        },
        {
          "internalType": "uint256",
          "name": "addedValue",
          "type": "uint256"
        }
      ],
      "name": "increaseAllowance",
      "outputs": [
        {
          "internalType": "bool",
          "name": "",
          "type": "bool"
        }
      ],
      "stateMutability": "nonpayable",
      "type": "function"
    },
    {
      "inputs": [
        {
          "internalType": "address",
          "name": "_richOne",
          "type": "address"
        }
      ],
      "name": "initialize",
      "outputs": [],
      "stateMutability": "nonpayable",
      "type": "function"
    },
    {
      "inputs": [],
      "name": "name",
      "outputs": [
        {
          "internalType": "string",
          "name": "",
          "type": "string"
        }
      ],
      "stateMutability": "view",
      "type": "function"
    },
    {
      "inputs": [],
      "name": "owner",
      "outputs": [
        {
          "internalType": "address",
          "name": "",
          "type": "address"
        }
      ],
      "stateMutability": "view",
      "type": "function"
    },
    {
      "inputs": [],
      "name": "renounceOwnership",
      "outputs": [],
      "stateMutability": "nonpayable",
      "type": "function"
    },
    {
      "inputs": [],
      "name": "symbol",
      "outputs": [
        {
          "internalType": "string",
          "name": "",
          "type": "string"
        }
      ],
      "stateMutability": "view",
      "type": "function"
    },
    {
      "inputs": [],
      "name": "totalSupply",
      "outputs": [
        {
          "internalType": "uint256",
          "name": "",
          "type": "uint256"
        }
      ],
      "stateMutability": "view",
      "type": "function"
    },
    {
      "inputs": [
        {
          "internalType": "address",
          "name": "recipient",
          "type": "address"
        },
        {
          "internalType": "uint256",
          "name": "amount",
          "type": "uint256"
        }
      ],
      "name": "transfer",
      "outputs": [
        {
          "internalType": "bool",
          "name": "",
          "type": "bool"
        }
      ],
      "stateMutability": "nonpayable",
      "type": "function"
    },
    {
      "inputs": [
        {
          "internalType": "address",
          "name": "sender",
          "type": "address"
        },
        {
          "internalType": "address",
          "name": "recipient",
          "type": "address"
        },
        {
          "internalType": "uint256",
          "name": "amount",
          "type": "uint256"
        }
      ],
      "name": "transferFrom",
      "outputs": [
        {
          "internalType": "bool",
          "name": "",
          "type": "bool"
        }
      ],
      "stateMutability": "nonpayable",
      "type": "function"
    },
    {
      "inputs": [
        {
          "internalType": "address",
          "name": "newOwner",
          "type": "address"
        }
      ],
      "name": "transferOwnership",
      "outputs": [],
      "stateMutability": "nonpayable",
      "type": "function"
    }
  ],
  "bytecode": "0x608060405234801561001057600080fd5b506113f3806100206000396000f3fe608060405234801561001057600080fd5b50600436106100d55760003560e01c8063715018a611610087578063715018a6146102575780638da5cb5b1461026157806395d89b4114610285578063a457c2d71461028d578063a9059cbb146102b9578063c4d66de8146102e5578063dd62ed3e1461030b578063f2fde38b14610339576100d5565b806306fdde03146100da578063095ea7b31461015757806318160ddd1461019757806323b872dd146101b1578063313ce567146101e7578063395093511461020557806370a0823114610231575b600080fd5b6100e261035f565b6040805160208082528351818301528351919283929083019185019080838360005b8381101561011c578181015183820152602001610104565b50505050905090810190601f1680156101495780820380516001836020036101000a031916815260200191505b509250505060405180910390f35b6101836004803603604081101561016d57600080fd5b506001600160a01b0381351690602001356103f5565b604080519115158252519081900360200190f35b61019f610412565b60408051918252519081900360200190f35b610183600480360360608110156101c757600080fd5b506001600160a01b03813581169160208101359091169060400135610418565b6101ef61049f565b6040805160ff9092168252519081900360200190f35b6101836004803603604081101561021b57600080fd5b506001600160a01b0381351690602001356104a8565b61019f6004803603602081101561024757600080fd5b50356001600160a01b03166104f6565b61025f610511565b005b6102696105b3565b604080516001600160a01b039092168252519081900360200190f35b6100e26105c2565b610183600480360360408110156102a357600080fd5b506001600160a01b038135169060200135610623565b610183600480360360408110156102cf57600080fd5b506001600160a01b03813516906020013561068b565b61025f600480360360208110156102fb57600080fd5b50356001600160a01b031661069f565b61019f6004803603604081101561032157600080fd5b506001600160a01b0381358116916020013516610883565b61025f6004803603602081101561034f57600080fd5b50356001600160a01b03166108ae565b60368054604080516020601f60026000196101006001881615020190951694909404938401819004810282018101909252828152606093909290918301828280156103eb5780601f106103c0576101008083540402835291602001916103eb565b820191906000526020600020905b8154815290600101906020018083116103ce57829003601f168201915b5050505050905090565b60006104096104026109a7565b84846109ab565b50600192915050565b60355490565b6000610425848484610a97565b610495846104316109a7565b610490856040518060600160405280602881526020016112e8602891396001600160a01b038a1660009081526034602052604081209061046f6109a7565b6001600160a01b031681526020810191909152604001600020549190610be2565b6109ab565b5060019392505050565b60385460ff1690565b60006104096104b56109a7565b8461049085603460006104c66109a7565b6001600160a01b03908116825260208083019390935260409182016000908120918c168152925290205490610c79565b6001600160a01b031660009081526033602052604090205490565b6105196109a7565b6065546001600160a01b0390811691161461057b576040805162461bcd60e51b815260206004820181905260248201527f4f776e61626c653a2063616c6c6572206973206e6f7420746865206f776e6572604482015290519081900360640190fd5b6065546040516000916001600160a01b031690600080516020611310833981519152908390a3606580546001600160a01b0319169055565b6065546001600160a01b031690565b60378054604080516020601f60026000196101006001881615020190951694909404938401819004810282018101909252828152606093909290918301828280156103eb5780601f106103c0576101008083540402835291602001916103eb565b60006104096106306109a7565b8461049085604051806060016040528060258152602001611399602591396034600061065a6109a7565b6001600160a01b03908116825260208083019390935260409182016000908120918d16815292529020549190610be2565b60006104096106986109a7565b8484610a97565b600054610100900460ff16806106b857506106b8610cda565b806106c6575060005460ff16155b6107015760405162461bcd60e51b815260040180806020018281038252602e8152602001806112ba602e913960400191505060405180910390fd5b600054610100900460ff1615801561072c576000805460ff1961ff0019909116610100171660011790555b610734610ce0565b6107796040518060400160405280600881526020016726bc902a37b5b2b760c11b8152506040518060400160405280600381526020016234b7b160e91b815250610d92565b6c7e37be2022c0914b26800000006107918382610e48565b826001600160a01b031663e66738cd6040518163ffffffff1660e01b8152600401600060405180830381600087803b1580156107cc57600080fd5b505af11580156107e0573d6000803e3d6000fd5b505050506107ec6109a7565b6001600160a01b031660006001600160a01b0316600080516020611330833981519152836040518082815260200191505060405180910390a361082d6109a7565b6001600160a01b0316306001600160a01b03167f0e474375f00439aaa979b958831081dcafa64837b226c4e5224cef141618df2460405160405180910390a350801561087f576000805461ff00191690555b5050565b6001600160a01b03918216600090815260346020908152604080832093909416825291909152205490565b6108b66109a7565b6065546001600160a01b03908116911614610918576040805162461bcd60e51b815260206004820181905260248201527f4f776e61626c653a2063616c6c6572206973206e6f7420746865206f776e6572604482015290519081900360640190fd5b6001600160a01b03811661095d5760405162461bcd60e51b815260040180806020018281038252602681526020018061124c6026913960400191505060405180910390fd5b6065546040516001600160a01b0380841692169060008051602061131083398151915290600090a3606580546001600160a01b0319166001600160a01b0392909216919091179055565b3390565b6001600160a01b0383166109f05760405162461bcd60e51b81526004018080602001828103825260248152602001806113756024913960400191505060405180910390fd5b6001600160a01b038216610a355760405162461bcd60e51b81526004018080602001828103825260228152602001806112726022913960400191505060405180910390fd5b6001600160a01b03808416600081815260346020908152604080832094871680845294825291829020859055815185815291517f8c5be1e5ebec7d5bd14f71427d1e84f3dd0314c0f7b2291e5b200ac8c7c3b9259281900390910190a3505050565b6001600160a01b038316610adc5760405162461bcd60e51b81526004018080602001828103825260258152602001806113506025913960400191505060405180910390fd5b6001600160a01b038216610b215760405162461bcd60e51b81526004018080602001828103825260238152602001806112296023913960400191505060405180910390fd5b610b2c838383610e43565b610b6981604051806060016040528060268152602001611294602691396001600160a01b0386166000908152603360205260409020549190610be2565b6001600160a01b038085166000908152603360205260408082209390935590841681522054610b989082610c79565b6001600160a01b03808416600081815260336020908152604091829020949094558051858152905191939287169260008051602061133083398151915292918290030190a3505050565b60008184841115610c715760405162461bcd60e51b81526004018080602001828103825283818151815260200191508051906020019080838360005b83811015610c36578181015183820152602001610c1e565b50505050905090810190601f168015610c635780820380516001836020036101000a031916815260200191505b509250505060405180910390fd5b505050900390565b600082820183811015610cd3576040805162461bcd60e51b815260206004820152601b60248201527f536166654d6174683a206164646974696f6e206f766572666c6f770000000000604482015290519081900360640190fd5b9392505050565b303b1590565b600054610100900460ff1680610cf95750610cf9610cda565b80610d07575060005460ff16155b610d425760405162461bcd60e51b815260040180806020018281038252602e8152602001806112ba602e913960400191505060405180910390fd5b600054610100900460ff16158015610d6d576000805460ff1961ff0019909116610100171660011790555b610d75610f28565b610d7d610fc8565b8015610d8f576000805461ff00191690555b50565b600054610100900460ff1680610dab5750610dab610cda565b80610db9575060005460ff16155b610df45760405162461bcd60e51b815260040180806020018281038252602e8152602001806112ba602e913960400191505060405180910390fd5b600054610100900460ff16158015610e1f576000805460ff1961ff0019909116610100171660011790555b610e27610f28565b610e3183836110af565b8015610e43576000805461ff00191690555b505050565b6001600160a01b038216610ea3576040805162461bcd60e51b815260206004820152601f60248201527f45524332303a206d696e7420746f20746865207a65726f206164647265737300604482015290519081900360640190fd5b610eaf60008383610e43565b603554610ebc9082610c79565b6035556001600160a01b038216600090815260336020526040902054610ee29082610c79565b6001600160a01b03831660008181526033602090815260408083209490945583518581529351929391926000805160206113308339815191529281900390910190a35050565b600054610100900460ff1680610f415750610f41610cda565b80610f4f575060005460ff16155b610f8a5760405162461bcd60e51b815260040180806020018281038252602e8152602001806112ba602e913960400191505060405180910390fd5b600054610100900460ff16158015610d7d576000805460ff1961ff0019909116610100171660011790558015610d8f576000805461ff001916905550565b600054610100900460ff1680610fe15750610fe1610cda565b80610fef575060005460ff16155b61102a5760405162461bcd60e51b815260040180806020018281038252602e8152602001806112ba602e913960400191505060405180910390fd5b600054610100900460ff16158015611055576000805460ff1961ff0019909116610100171660011790555b600061105f6109a7565b606580546001600160a01b0319166001600160a01b03831690811790915560405191925090600090600080516020611310833981519152908290a3508015610d8f576000805461ff001916905550565b600054610100900460ff16806110c857506110c8610cda565b806110d6575060005460ff16155b6111115760405162461bcd60e51b815260040180806020018281038252602e8152602001806112ba602e913960400191505060405180910390fd5b600054610100900460ff1615801561113c576000805460ff1961ff0019909116610100171660011790555b825161114f906036906020860190611187565b508151611163906037906020850190611187565b506038805460ff191660121790558015610e43576000805461ff0019169055505050565b828054600181600116156101000203166002900490600052602060002090601f0160209004810192826111bd5760008555611203565b82601f106111d657805160ff1916838001178555611203565b82800160010185558215611203579182015b828111156112035782518255916020019190600101906111e8565b5061120f929150611213565b5090565b5b8082111561120f576000815560010161121456fe45524332303a207472616e7366657220746f20746865207a65726f20616464726573734f776e61626c653a206e6577206f776e657220697320746865207a65726f206164647265737345524332303a20617070726f766520746f20746865207a65726f206164647265737345524332303a207472616e7366657220616d6f756e7420657863656564732062616c616e6365496e697469616c697a61626c653a20636f6e747261637420697320616c726561647920696e697469616c697a656445524332303a207472616e7366657220616d6f756e74206578636565647320616c6c6f77616e63658be0079c531659141344cd1fd0a4f28419497f9722a3daafe3b4186f6b6457e0ddf252ad1be2c89b69c2b068fc378daa952ba7f163c4a11628f55a4df523b3ef45524332303a207472616e736665722066726f6d20746865207a65726f206164647265737345524332303a20617070726f76652066726f6d20746865207a65726f206164647265737345524332303a2064656372656173656420616c6c6f77616e63652062656c6f77207a65726fa264697066735822122056aaadbee2e0312ec80587bfcb458530db6d80760b923d3279ca8d218ffa41f964736f6c63430007060033",
  "linkReferences": {},
  "deployedLinkReferences": {}
}