{
  "_format": "hh-sol-artifact-1",
  "contractName": "ContractRegistry",
  "sourceName": "contracts/ContractRegistry.sol",
  "abi": [
    {
      "anonymous": false,
      "inputs": [
        {
          "indexed": false,
          "internalType": "address",
          "name": "proxy",
          "type": "address"
        },
        {
          "indexed": false,
          "internalType": "address",
          "name": "logic",
          "type": "address"
        },
        {
          "indexed": true,
          "internalType": "address",
          "name": "owner",
          "type": "address"
        },
        {
          "indexed": true,
          "internalType": "bytes32",
          "name": "typeId",
          "type": "bytes32"
        },
        {
          "indexed": false,
          "internalType": "string",
          "name": "typeName",
          "type": "string"
        },
        {
          "indexed": true,
          "internalType": "bytes2",
          "name": "version",
          "type": "bytes2"
        }
      ],
      "name": "Deployed",
      "type": "event"
    },
    {
      "anonymous": false,
      "inputs": [
        {
          "indexed": true,
          "internalType": "address",
          "name": "registry",
          "type": "address"
        },
        {
          "indexed": true,
          "internalType": "address",
          "name": "owner",
          "type": "address"
        }
      ],
      "name": "Initialized",
      "type": "event"
    },
    {
      "anonymous": false,
      "inputs": [
        {
          "indexed": true,
          "internalType": "bytes32",
          "name": "id",
          "type": "bytes32"
        },
        {
          "indexed": false,
          "internalType": "string",
          "name": "type_",
          "type": "string"
        },
        {
          "indexed": true,
          "internalType": "bytes2",
          "name": "version",
          "type": "bytes2"
        }
      ],
      "name": "NewType",
      "type": "event"
    },
    {
      "anonymous": false,
      "inputs": [
        {
          "indexed": true,
          "internalType": "address",
          "name": "proxy",
          "type": "address"
        },
        {
          "indexed": true,
          "internalType": "address",
          "name": "oldOwner",
          "type": "address"
        },
        {
          "indexed": true,
          "internalType": "address",
          "name": "newOwner",
          "type": "address"
        }
      ],
      "name": "OwnerChanged",
      "type": "event"
    },
    {
      "anonymous": false,
      "inputs": [
        {
          "indexed": true,
          "internalType": "address",
          "name": "previousOwner",
          "type": "address"
        },
        {
          "indexed": true,
          "internalType": "address",
          "name": "newOwner",
          "type": "address"
        }
      ],
      "name": "OwnershipTransferred",
      "type": "event"
    },
    {
      "anonymous": false,
      "inputs": [
        {
          "indexed": true,
          "internalType": "bytes32",
          "name": "id",
          "type": "bytes32"
        }
      ],
      "name": "TypeDeleted",
      "type": "event"
    },
    {
      "anonymous": false,
      "inputs": [
        {
          "indexed": true,
          "internalType": "address",
          "name": "proxy",
          "type": "address"
        },
        {
          "indexed": false,
          "internalType": "address",
          "name": "oldLogic",
          "type": "address"
        },
        {
          "indexed": false,
          "internalType": "address",
          "name": "newLogic",
          "type": "address"
        },
        {
          "indexed": true,
          "internalType": "address",
          "name": "owner",
          "type": "address"
        },
        {
          "indexed": true,
          "internalType": "bytes32",
          "name": "typeId",
          "type": "bytes32"
        },
        {
          "indexed": false,
          "internalType": "string",
          "name": "typeName",
          "type": "string"
        },
        {
          "indexed": false,
          "internalType": "bytes2",
          "name": "oldVersion",
          "type": "bytes2"
        },
        {
          "indexed": false,
          "internalType": "bytes2",
          "name": "newVersion",
          "type": "bytes2"
        }
      ],
      "name": "Upgraded",
      "type": "event"
    },
    {
      "anonymous": false,
      "inputs": [
        {
          "indexed": true,
          "internalType": "bytes32",
          "name": "id",
          "type": "bytes32"
        },
        {
          "indexed": true,
          "internalType": "bytes2",
          "name": "oldVersion",
          "type": "bytes2"
        },
        {
          "indexed": true,
          "internalType": "bytes2",
          "name": "newVersion",
          "type": "bytes2"
        }
      ],
      "name": "VersionUpdated",
      "type": "event"
    },
    {
      "inputs": [
        {
          "internalType": "bytes",
          "name": "_bytecode",
          "type": "bytes"
        },
        {
          "internalType": "bytes",
          "name": "_data",
          "type": "bytes"
        },
        {
          "internalType": "bytes32",
          "name": "_salt",
          "type": "bytes32"
        },
        {
          "internalType": "bytes32",
          "name": "_typeId",
          "type": "bytes32"
        }
      ],
      "name": "deployContract",
      "outputs": [],
      "stateMutability": "nonpayable",
      "type": "function"
    },
    {
      "inputs": [
        {
          "internalType": "address",
          "name": "_proxy",
          "type": "address"
        }
      ],
      "name": "getRecord",
      "outputs": [
        {
          "components": [
            {
              "internalType": "address",
              "name": "proxy",
              "type": "address"
            },
            {
              "internalType": "address",
              "name": "logic",
              "type": "address"
            },
            {
              "internalType": "address",
              "name": "owner",
              "type": "address"
            },
            {
              "internalType": "string",
              "name": "type_",
              "type": "string"
            },
            {
              "internalType": "bytes2",
              "name": "version",
              "type": "bytes2"
            },
            {
              "internalType": "uint256",
              "name": "dateCreated",
              "type": "uint256"
            },
            {
              "internalType": "uint256",
              "name": "dateUpdated",
              "type": "uint256"
            }
          ],
          "internalType": "struct ContractRegistry.ContractRecord",
          "name": "",
          "type": "tuple"
        }
      ],
      "stateMutability": "view",
      "type": "function"
    },
    {
      "inputs": [
        {
          "internalType": "bytes32",
          "name": "_id",
          "type": "bytes32"
        }
      ],
      "name": "getType",
      "outputs": [
        {
          "components": [
            {
              "internalType": "bytes32",
              "name": "id",
              "type": "bytes32"
            },
            {
              "internalType": "string",
              "name": "name",
              "type": "string"
            },
            {
              "internalType": "bytes2",
              "name": "version",
              "type": "bytes2"
            }
          ],
          "internalType": "struct ContractRegistry.ContractType",
          "name": "",
          "type": "tuple"
        }
      ],
      "stateMutability": "view",
      "type": "function"
    },
    {
      "inputs": [
        {
          "internalType": "string",
          "name": "_typeName",
          "type": "string"
        }
      ],
      "name": "getTypeByName",
      "outputs": [
        {
          "components": [
            {
              "internalType": "bytes32",
              "name": "id",
              "type": "bytes32"
            },
            {
              "internalType": "string",
              "name": "name",
              "type": "string"
            },
            {
              "internalType": "bytes2",
              "name": "version",
              "type": "bytes2"
            }
          ],
          "internalType": "struct ContractRegistry.ContractType",
          "name": "",
          "type": "tuple"
        }
      ],
      "stateMutability": "view",
      "type": "function"
    },
    {
      "inputs": [],
      "name": "getTypes",
      "outputs": [
        {
          "components": [
            {
              "internalType": "bytes32",
              "name": "id",
              "type": "bytes32"
            },
            {
              "internalType": "string",
              "name": "name",
              "type": "string"
            },
            {
              "internalType": "bytes2",
              "name": "version",
              "type": "bytes2"
            }
          ],
          "internalType": "struct ContractRegistry.ContractType[]",
          "name": "",
          "type": "tuple[]"
        }
      ],
      "stateMutability": "view",
      "type": "function"
    },
    {
      "inputs": [
        {
          "internalType": "bytes32",
          "name": "_typeId",
          "type": "bytes32"
        }
      ],
      "name": "getVersion",
      "outputs": [
        {
          "internalType": "bytes2",
          "name": "",
          "type": "bytes2"
        }
      ],
      "stateMutability": "view",
      "type": "function"
    },
    {
      "inputs": [
        {
          "internalType": "string",
          "name": "_typeName",
          "type": "string"
        }
      ],
      "name": "getVersionByName",
      "outputs": [
        {
          "internalType": "bytes2",
          "name": "",
          "type": "bytes2"
        }
      ],
      "stateMutability": "view",
      "type": "function"
    },
    {
      "inputs": [],
      "name": "initialize",
      "outputs": [],
      "stateMutability": "nonpayable",
      "type": "function"
    },
    {
      "inputs": [
        {
          "internalType": "string",
          "name": "",
          "type": "string"
        }
      ],
      "name": "isType",
      "outputs": [
        {
          "internalType": "bool",
          "name": "",
          "type": "bool"
        }
      ],
      "stateMutability": "view",
      "type": "function"
    },
    {
      "inputs": [],
      "name": "owner",
      "outputs": [
        {
          "internalType": "address",
          "name": "",
          "type": "address"
        }
      ],
      "stateMutability": "view",
      "type": "function"
    },
    {
      "inputs": [
        {
          "internalType": "bytes32",
          "name": "_typeId",
          "type": "bytes32"
        }
      ],
      "name": "removeType",
      "outputs": [],
      "stateMutability": "nonpayable",
      "type": "function"
    },
    {
      "inputs": [],
      "name": "renounceOwnership",
      "outputs": [],
      "stateMutability": "nonpayable",
      "type": "function"
    },
    {
      "inputs": [
        {
          "internalType": "string",
          "name": "_type",
          "type": "string"
        },
        {
          "internalType": "bytes2",
          "name": "_version",
          "type": "bytes2"
        }
      ],
      "name": "setType",
      "outputs": [],
      "stateMutability": "nonpayable",
      "type": "function"
    },
    {
      "inputs": [
        {
          "internalType": "bytes32",
          "name": "_typeId",
          "type": "bytes32"
        },
        {
          "internalType": "bytes2",
          "name": "_newVersion",
          "type": "bytes2"
        }
      ],
      "name": "setVersion",
      "outputs": [],
      "stateMutability": "nonpayable",
      "type": "function"
    },
    {
      "inputs": [
        {
          "internalType": "address",
          "name": "_proxy",
          "type": "address"
        },
        {
          "internalType": "address",
          "name": "_newOwner",
          "type": "address"
        }
      ],
      "name": "transferOwner",
      "outputs": [],
      "stateMutability": "nonpayable",
      "type": "function"
    },
    {
      "inputs": [
        {
          "internalType": "address",
          "name": "newOwner",
          "type": "address"
        }
      ],
      "name": "transferOwnership",
      "outputs": [],
      "stateMutability": "nonpayable",
      "type": "function"
    },
    {
      "inputs": [
        {
          "internalType": "address",
          "name": "_proxy",
          "type": "address"
        }
      ],
      "name": "updateRecordOwner",
      "outputs": [],
      "stateMutability": "nonpayable",
      "type": "function"
    },
    {
      "inputs": [
        {
          "internalType": "address payable",
          "name": "_proxy",
          "type": "address"
        },
        {
          "internalType": "bytes",
          "name": "_bytecode",
          "type": "bytes"
        },
        {
          "internalType": "bytes32",
          "name": "_salt",
          "type": "bytes32"
        }
      ],
      "name": "upgradeContract",
      "outputs": [],
      "stateMutability": "nonpayable",
      "type": "function"
    }
  ],
  "bytecode": "0x608060405234801561001057600080fd5b506146e0806100206000396000f3fe60806040523480156200001157600080fd5b50600436106200010c5760003560e01c80638129fc1c116200009f5780638129fc1c146200020b5780638a6324c314620002155780638da5cb5b146200022c5780639aaf9f081462000245578063b4579d60146200026b578063db002d451462000284578063e3fa4be5146200029b578063eb6f9cb814620002b2578063f2fde38b14620002c9576200010c565b80630c93d40114620001115780631bdb95c0146200012a5780632bee742e146200014157806331678cf614620001705780635e06ce191462000187578063617fba0414620001ad578063715018a614620001d35780637f2aeea414620001dd5780637ffeb91414620001f4575b600080fd5b620001286200012236600462002daf565b620002e0565b005b620001286200013b36600462002df6565b620004f8565b620001586200015236600462002e6e565b62000674565b60405162000167919062003426565b60405180910390f35b620001286200018136600462002d72565b6200079d565b6200019e6200019836600462002e6e565b6200080e565b60405162000167919062003079565b620001c4620001be36600462002ca0565b6200082e565b604051620001679190620033aa565b6200012862000975565b62000158620001ee36600462002daf565b62000a0a565b620001286200020536600462002ce5565b62000b1f565b6200012862001327565b620001286200022636600462002dc8565b6200149e565b6200023662001721565b60405162000167919062002f79565b6200025c6200025636600462002daf565b62001730565b60405162000167919062003084565b6200027562001770565b60405162000167919062003015565b6200025c6200029536600462002e6e565b6200189e565b62000128620002ac36600462002ca0565b620018f1565b62000128620002c336600462002ea5565b62001e37565b62000128620002da36600462002ca0565b62002046565b6000818152606660205260409020546065805460001990920191829081106200030557fe5b6000918252602082206003909102015460405190917fd87784c09ca6d5badbf9be0ec29199790d4a9e664fc61af42353c0ab86ba4d5f91a2606580546000919060001981019081106200035457fe5b906000526020600020906003020160405180606001604052908160008201548152602001600182018054600181600116156101000203166002900480601f016020809104026020016040519081016040528092919081815260200182805460018160011615610100020316600290048015620004145780601f10620003e85761010080835404028352916020019162000414565b820191906000526020600020905b815481529060010190602001808311620003f657829003601f168201915b50505091835250506002919091015460f01b6001600160f01b031916602090910152606580549192508291849081106200044a57fe5b90600052602060002090600302016000820151816000015560208201518160010190805190602001906200048092919062002aa1565b50604091820151600291909101805461ffff191660f09290921c919091179055815160009081526066602052208290556065805480620004bc57fe5b60008281526020812060036000199093019283020181815590620004e4600183018262002b36565b50600201805461ffff191690559055505050565b6000620005058262000a0a565b90506000620005176000858862002134565b606c5460405191925060009183916001600160a01b03169088906200053c9062002b7e565b6200054a9392919062002f8d565b604051809103906000f08015801562000567573d6000803e3d6000fd5b509050806001600160a01b031663f2fde38b620005836200224c565b6040518263ffffffff1660e01b8152600401620005a1919062002f79565b600060405180830381600087803b158015620005bc57600080fd5b505af1925050508015620005ce575060015b620005f65760405162461bcd60e51b8152600401620005ed9062003166565b60405180910390fd5b82604001516001600160f01b0319168360000151620006146200224c565b6001600160a01b03167f4c0507e7d66cd7a29c40626ee4839647534efc831b3dbe6ea184650d240c189684868860200151604051620006569392919062002f8d565b60405180910390a46200066b81838562002250565b50505050505050565b6200067e62002b8c565b60006200068b8362002693565b6000818152606660205260409020546065805492935091600019909101908110620006b257fe5b906000526020600020906003020160405180606001604052908160008201548152602001600182018054600181600116156101000203166002900480601f016020809104026020016040519081016040528092919081815260200182805460018160011615610100020316600290048015620007725780601f10620007465761010080835404028352916020019162000772565b820191906000526020600020905b8154815290600101906020018083116200075457829003601f168201915b50505091835250506002919091015460f01b6001600160f01b0319166020909101529150505b919050565b60405163f2fde38b60e01b81526001600160a01b0383169063f2fde38b90620007cb90849060040162002f79565b600060405180830381600087803b158015620007e657600080fd5b505af1158015620007fb573d6000803e3d6000fd5b505050506200080a82620018f1565b5050565b805160208183018101805160678252928201919093012091525460ff1681565b6200083862002bae565b6001600160a01b038216600090815260696020526040902054606880549091600019019081106200086557fe5b60009182526020918290206040805160e08101825260079390930290910180546001600160a01b0390811684526001808301548216858701526002808401549092168585015260038301805485516101009382161593909302600019011692909204601f810187900487028201870190945283815293949193606086019390928301828280156200093a5780601f106200090e576101008083540402835291602001916200093a565b820191906000526020600020905b8154815290600101906020018083116200091c57829003601f168201915b5050509183525050600482015460f01b6001600160f01b03191660208201526005820154604082015260069091015460609091015292915050565b6200097f6200224c565b6033546001600160a01b03908116911614620009d1576040805162461bcd60e51b815260206004820181905260248201526000805160206200466b833981519152604482015290519081900360640190fd5b6033546040516000916001600160a01b0316906000805160206200468b833981519152908390a3603380546001600160a01b0319169055565b62000a1462002b8c565b6000828152606660205260409020546065805490916000190190811062000a3757fe5b906000526020600020906003020160405180606001604052908160008201548152602001600182018054600181600116156101000203166002900480601f01602080910402602001604051908101604052809291908181526020018280546001816001161561010002031660029004801562000af75780601f1062000acb5761010080835404028352916020019162000af7565b820191906000526020600020905b81548152906001019060200180831162000ad957829003601f168201915b50505091835250506002919091015460f01b6001600160f01b03191660209091015292915050565b836000816001600160a01b0316638da5cb5b6040518163ffffffff1660e01b815260040160206040518083038186803b15801562000b5c57600080fd5b505afa15801562000b71573d6000803e3d6000fd5b505050506040513d601f19601f8201168201806040525081019062000b97919062002cc6565b9050806001600160a01b031662000bad6200224c565b6001600160a01b03161462000bd65760405162461bcd60e51b8152600401620005ed9062003279565b6001600160a01b0386166000908152606960205260408120546068805460001990920192918390811062000c0657fe5b60009182526020918290206040805160e08101825260079390930290910180546001600160a01b0390811684526001808301548216858701526002808401549092168585015260038301805485516101009382161593909302600019011692909204601f8101879004870282018701909452838152939491936060860193909283018282801562000cdb5780601f1062000caf5761010080835404028352916020019162000cdb565b820191906000526020600020905b81548152906001019060200180831162000cbd57829003601f168201915b5050509183525050600482015460f01b6001600160f01b0319166020820152600582015460408201526006909101546060918201526080820151908201519192509060009062000d2b906200189e565b90506001600160f01b03198082169083161062000d5c5760405162461bcd60e51b8152600401620005ed90620031dc565b600083602001519050600062000dab60008a8d8d8080601f0160208091040260200160405190810160405280939291908181526020018383808284376000920191909152506200213492505050565b606c5460405163266a23b160e21b81529192508d916001600160a01b03909116906399a88ec49062000de4908490869060040162003099565b600060405180830381600087803b15801562000dff57600080fd5b505af115801562000e14573d6000803e3d6000fd5b5050606c546040516310270e3d60e11b81526001600160a01b03909116925063204e1c7a915062000e4a90849060040162002f79565b60206040518083038186803b15801562000e6357600080fd5b505afa15801562000e78573d6000803e3d6000fd5b505050506040513d601f19601f8201168201806040525081019062000e9e919062002cc6565b6001600160a01b0390811660208801819052908416141562000ed45760405162461bcd60e51b8152600401620005ed9062003111565b6001600160f01b03198416608087015260408051638da5cb5b60e01b815290516001600160a01b038f1691638da5cb5b916004808301926020929190829003018186803b15801562000f2557600080fd5b505afa15801562000f3a573d6000803e3d6000fd5b505050506040513d601f19601f8201168201806040525081019062000f60919062002cc6565b6001600160a01b031660408701524260c0870152606880548791908990811062000f8657fe5b6000918252602091829020835160079092020180546001600160a01b039283166001600160a01b03199182161782558484015160018301805491851691831691909117905560408501516002830180549190941691161790915560608301518051919262000ffd9260038501929091019062002aa1565b5060808201518160040160006101000a81548161ffff021916908360f01c021790555060a0820151816005015560c082015181600601559050506001606a600088604001516001600160a01b03166001600160a01b0316815260200190815260200160002060010160008f6001600160a01b03166001600160a01b031681526020019081526020016000205403965085606a600088604001516001600160a01b03166001600160a01b031681526020019081526020016000206000018881548110620010c557fe5b6000918252602091829020835160079092020180546001600160a01b039283166001600160a01b0319918216178255848401516001830180549185169183169190911790556040850151600283018054919094169116179091556060830151805191926200113c9260038501929091019062002aa1565b50608082015160048201805461ffff191660f09290921c91909117905560a0820151600582015560c0909101516006909101556060860151604051600191606b9162001189919062002f5b565b908152602001604051809103902060010160008f6001600160a01b03166001600160a01b031681526020019081526020016000205403965085606b8760600151604051620011d8919062002f5b565b90815260200160405180910390206000018881548110620011f557fe5b6000918252602091829020835160079092020180546001600160a01b039283166001600160a01b0319918216178255848401516001830180549185169183169190911790556040850151600283018054919094169116179091556060830151805191926200126c9260038501929091019062002aa1565b50608082015160048201805461ffff191660f09290921c91909117905560a0820151600582015560c0909101516006909101556060860151620012af9062002693565b86604001516001600160a01b031687600001516001600160a01b03167f1a3de72684bc61bc7a6beab0167a5606da8f2b7cdb4d2c49bd68a6d22c97d476868a602001518b606001518b8d608001516040516200131095949392919062002fc4565b60405180910390a450505050505050505050505050565b600054610100900460ff1680620013435750620013436200270c565b8062001352575060005460ff16155b6200138f5760405162461bcd60e51b815260040180806020018281038252602e8152602001806200463d602e913960400191505060405180910390fd5b600054610100900460ff16158015620013bb576000805460ff1961ff0019909116610100171660011790555b620013c562002712565b604051620013d39062002be9565b604051809103906000f080158015620013f0573d6000803e3d6000fd5b50606c80546001600160a01b0319166001600160a01b039290921691909117905560408051808201909152600781526667656e6572696360c81b60208201526200143f90600160f81b62001e37565b6200144962001721565b6001600160a01b0316306001600160a01b03167f3cd5ec01b1ae7cfec6ca1863e2cd6aa25d6d1702825803ff2b7cc95010fffdc260405160405180910390a380156200149b576000805461ff00191690555b50565b620014a86200224c565b6033546001600160a01b03908116911614620014fa576040805162461bcd60e51b815260206004820181905260248201526000805160206200466b833981519152604482015290519081900360640190fd5b600082815260666020526040902054620015285760405162461bcd60e51b8152600401620005ed9062003306565b600082815260666020526040812054606580546000199092019291839081106200154e57fe5b906000526020600020906003020160405180606001604052908160008201548152602001600182018054600181600116156101000203166002900480601f0160208091040260200160405190810160405280929190818152602001828054600181600116156101000203166002900480156200160e5780601f10620015e2576101008083540402835291602001916200160e565b820191906000526020600020905b815481529060010190602001808311620015f057829003601f168201915b50505091835250506002919091015460f01b6001600160f01b03199081166020909201919091526040820151919250848116911610620016625760405162461bcd60e51b8152600401620005ed906200335e565b604080820151825191516001600160f01b031980871693921691907f48490049df7836d97c8b45e4d2d1ebcd377be776d77ad468190ef06ee9fa32d990600090a46001600160f01b0319831660408201526065805482919084908110620016c557fe5b9060005260206000209060030201600082015181600001556020820151816001019080519060200190620016fb92919062002aa1565b50604091909101516002909101805461ffff191660f09290921c91909117905550505050565b6033546001600160a01b031690565b600081815260666020526040812054606580549091600019019081106200175357fe5b600091825260209091206003909102016002015460f01b92915050565b60606065600001805480602002602001604051908101604052809291908181526020016000905b8282101562001895578382906000526020600020906003020160405180606001604052908160008201548152602001600182018054600181600116156101000203166002900480601f016020809104026020016040519081016040528092919081815260200182805460018160011615610100020316600290048015620018625780601f10620018365761010080835404028352916020019162001862565b820191906000526020600020905b8154815290600101906020018083116200184457829003601f168201915b50505091835250506002919091015460f01b6001600160f01b031916602091820152908252600192909201910162001797565b50505050905090565b600080620018ac8362002693565b6000818152606660205260409020546065805492935091600019909101908110620018d357fe5b600091825260209091206003909102016002015460f01b9392505050565b6001600160a01b038116600090815260696020526040902054620019295760405162461bcd60e51b8152600401620005ed90620030c8565b6001600160a01b038116600090815260696020526040812054606880546000199092019291839081106200195957fe5b60009182526020918290206040805160e08101825260079390930290910180546001600160a01b0390811684526001808301548216858701526002808401549092168585015260038301805485516101009382161593909302600019011692909204601f8101879004870282018701909452838152939491936060860193909283018282801562001a2e5780601f1062001a025761010080835404028352916020019162001a2e565b820191906000526020600020905b81548152906001019060200180831162001a1057829003601f168201915b505050505081526020016004820160009054906101000a900460f01b6001600160f01b0319166001600160f01b0319168152602001600582015481526020016006820154815250509050600081604001519050836001600160a01b0316638da5cb5b6040518163ffffffff1660e01b815260040160206040518083038186803b15801562001abb57600080fd5b505afa15801562001ad0573d6000803e3d6000fd5b505050506040513d601f19601f8201168201806040525081019062001af6919062002cc6565b6001600160a01b03166040830152606880548391908590811062001b1657fe5b6000918252602091829020835160079092020180546001600160a01b039283166001600160a01b03199182161782558484015160018301805491851691831691909117905560408501516002830180549190941691161790915560608301518051919262001b8d9260038501929091019062002aa1565b50608082015160048201805461ffff191660f09290921c91909117905560a0820151600582015560c090910151600690910155604082810180516001600160a01b039081166000908152606a60208181528583208a851684526001018152858320549451909316825290915291909120805460001992909201945083918590811062001c1557fe5b6000918252602091829020835160079092020180546001600160a01b039283166001600160a01b03199182161782558484015160018301805491851691831691909117905560408501516002830180549190941691161790915560608301518051919262001c8c9260038501929091019062002aa1565b50608082015160048201805461ffff191660f09290921c91909117905560a0820151600582015560c0909101516006909101556060820151604051600191606b9162001cd9919062002f5b565b90815260200160405180910390206001016000866001600160a01b03166001600160a01b031681526020019081526020016000205403925081606b836060015160405162001d28919062002f5b565b9081526020016040518091039020600001848154811062001d4557fe5b6000918252602091829020835160079092020180546001600160a01b039283166001600160a01b03199182161782558484015160018301805491851691831691909117905560408501516002830180549190941691161790915560608301518051919262001dbc9260038501929091019062002aa1565b50608082015160048201805461ffff191660f09290921c91909117905560a0820151600582015560c090910151600690910155604082810151835191516001600160a01b03918216928483169216907f381c0d11398486654573703c51ee8210ce9461764d133f9f0e53b6a53970533190600090a450505050565b62001e416200224c565b6033546001600160a01b0390811691161462001e93576040805162461bcd60e51b815260206004820181905260248201526000805160206200466b833981519152604482015290519081900360640190fd5b62001e9e82620027cf565b915060678260405162001eb2919062002f5b565b9081526040519081900360200190205460ff161562001ee55760405162461bcd60e51b8152600401620005ed90620032cf565b600062001ef28362002693565b6040805160608101825282815260208082018781526001600160f01b031987169383019390935260658054600181018255600091909152825160039091027f8ff97419363ffd7000167f130ef7168fbea05faf9251824ca5043f113cc6a7c781019182559351805195965092948594919362001f95937f8ff97419363ffd7000167f130ef7168fbea05faf9251824ca5043f113cc6a7c890930192019062002aa1565b50604091820151600291909101805461ffff191660f09290921c91909117905560655460008481526066602052829020555160019060679062001fda90879062002f5b565b908152604051908190036020018120805492151560ff19909316929092179091556001600160f01b031984169083907fc516e9b8fabb5273ee31b211f2e9b0108c605d99df3ba132a0a416f4e85846429062002038908890620030b3565b60405180910390a350505050565b620020506200224c565b6033546001600160a01b03908116911614620020a2576040805162461bcd60e51b815260206004820181905260248201526000805160206200466b833981519152604482015290519081900360640190fd5b6001600160a01b038116620020e95760405162461bcd60e51b8152600401808060200182810382526026815260200180620046176026913960400191505060405180910390fd5b6033546040516001600160a01b038084169216906000805160206200468b83398151915290600090a3603380546001600160a01b0319166001600160a01b0392909216919091179055565b600080844710156200218d576040805162461bcd60e51b815260206004820152601d60248201527f437265617465323a20696e73756666696369656e742062616c616e6365000000604482015290519081900360640190fd5b8251620021e1576040805162461bcd60e51b815260206004820181905260248201527f437265617465323a2062797465636f6465206c656e677468206973207a65726f604482015290519081900360640190fd5b8383516020850187f590506001600160a01b03811662002244576040805162461bcd60e51b8152602060048201526019602482015278437265617465323a204661696c6564206f6e206465706c6f7960381b604482015290519081900360640190fd5b949350505050565b3390565b6067816020015160405162002266919062002f5b565b9081526040519081900360200190205460ff16620022985760405162461bcd60e51b8152600401620005ed9062003233565b60006040518060e00160405280856001600160a01b03168152602001846001600160a01b03168152602001620022cd6200224c565b6001600160a01b039081168252602085810151818401526040808701516001600160f01b0319168185015242606080860182905260809095015260688054600181018255600091909152855160079091027fa2153420d844928b4421650203c77babc8b33d7f2e7b450e2966db0c22097753810180549286166001600160a01b0319938416178155878501517fa2153420d844928b4421650203c77babc8b33d7f2e7b450e2966db0c2209775483018054918816918516919091179055928701517fa2153420d844928b4421650203c77babc8b33d7f2e7b450e2966db0c2209775582018054919096169216919091179093559284015180519495508594620023fe937fa2153420d844928b4421650203c77babc8b33d7f2e7b450e2966db0c220977560192919091019062002aa1565b50608082015160048201805461ffff191660f09290921c91909117905560a0820151600582015560c0909101516006909101556068546001600160a01b03858116600090815260696020908152604080832094909455848401805184168352606a825293822080546001818101835591845292829020865160079094020180546001600160a01b03199081169486169490941781558683015191810180548516928616929092179091559351600285018054909316931692909217905560608301518051849392620024d892600385019291019062002aa1565b50608082015160048201805461ffff191660f09290921c91909117905560a0820151600582015560c090910151600690910155604081810180516001600160a01b039081166000908152606a60209081528482205493518316825284822092891682526001929092019091528290205560608201519051606b916200255d9162002f5b565b9081526040805160209281900383019020805460018082018355600092835291849020855160079092020180546001600160a01b03199081166001600160a01b03938416178255868601519382018054821694841694909417909355928501516002840180549093169116179055606083015180518493620025e792600385019291019062002aa1565b50608082015160048201805461ffff191660f09290921c91909117905560a0820151600582015560c0909101516006909101556060810151604051606b91620026309162002f5b565b9081526040519081900360200181205460608301519091606b91620026559162002f5b565b90815260200160405180910390206001016000866001600160a01b03166001600160a01b031681526020019081526020016000208190555050505050565b6000816040516020018082805190602001908083835b60208310620026ca5780518252601f199092019160209182019101620026a9565b6001836020036101000a038019825116818451168082178552505050505050905001915050604051602081830303815290604052805190602001209050919050565b303b1590565b600054610100900460ff16806200272e57506200272e6200270c565b806200273d575060005460ff16155b6200277a5760405162461bcd60e51b815260040180806020018281038252602e8152602001806200463d602e913960400191505060405180910390fd5b600054610100900460ff16158015620027a6576000805460ff1961ff0019909116610100171660011790555b620027b062002907565b620027ba620029af565b80156200149b576000805461ff001916905550565b606060008290506000815167ffffffffffffffff81118015620027f157600080fd5b506040519080825280601f01601f1916602001820160405280156200281d576020820181803683370190505b50905060005b8251811015620028ff5760418382815181106200283c57fe5b016020015160f81c10801590620028685750605a8382815181106200285d57fe5b016020015160f81c11155b15620028b9578281815181106200287b57fe5b602001015160f81c60f81b60f81c60200160f81b8282815181106200289c57fe5b60200101906001600160f81b031916908160001a905350620028f6565b828181518110620028c657fe5b602001015160f81c60f81b828281518110620028de57fe5b60200101906001600160f81b031916908160001a9053505b60010162002823565b509392505050565b600054610100900460ff1680620029235750620029236200270c565b8062002932575060005460ff16155b6200296f5760405162461bcd60e51b815260040180806020018281038252602e8152602001806200463d602e913960400191505060405180910390fd5b600054610100900460ff16158015620027ba576000805460ff1961ff00199091166101001716600117905580156200149b576000805461ff001916905550565b600054610100900460ff1680620029cb5750620029cb6200270c565b80620029da575060005460ff16155b62002a175760405162461bcd60e51b815260040180806020018281038252602e8152602001806200463d602e913960400191505060405180910390fd5b600054610100900460ff1615801562002a43576000805460ff1961ff0019909116610100171660011790555b600062002a4f6200224c565b603380546001600160a01b0319166001600160a01b038316908117909155604051919250906000906000805160206200468b833981519152908290a35080156200149b576000805461ff001916905550565b828054600181600116156101000203166002900490600052602060002090601f01602090048101928262002ad9576000855562002b24565b82601f1062002af457805160ff191683800117855562002b24565b8280016001018555821562002b24579182015b8281111562002b2457825182559160200191906001019062002b07565b5062002b3292915062002bf7565b5090565b50805460018160011615610100020316600290046000825580601f1062002b5e57506200149b565b601f0160209004906000526020600020908101906200149b919062002bf7565b6108dc806200348583390190565b6040805160608082018352600080835260208301919091529181019190915290565b6040805160e0810182526000808252602082018190529181018290526060808201526080810182905260a0810182905260c081019190915290565b6108b68062003d6183390190565b5b8082111562002b32576000815560010162002bf8565b80356001600160f01b0319811681146200079857600080fd5b600082601f83011262002c38578081fd5b813567ffffffffffffffff8082111562002c4e57fe5b604051601f8301601f19168101602001828111828210171562002c6d57fe5b60405282815284830160200186101562002c85578384fd5b82602086016020830137918201602001929092529392505050565b60006020828403121562002cb2578081fd5b813562002cbf816200346e565b9392505050565b60006020828403121562002cd8578081fd5b815162002cbf816200346e565b6000806000806060858703121562002cfb578283fd5b843562002d08816200346e565b9350602085013567ffffffffffffffff8082111562002d25578485fd5b818701915087601f83011262002d39578485fd5b81358181111562002d48578586fd5b88602082850101111562002d5a578586fd5b95986020929092019750949560400135945092505050565b6000806040838503121562002d85578182fd5b823562002d92816200346e565b9150602083013562002da4816200346e565b809150509250929050565b60006020828403121562002dc1578081fd5b5035919050565b6000806040838503121562002ddb578182fd5b8235915062002ded6020840162002c0e565b90509250929050565b6000806000806080858703121562002e0c578384fd5b843567ffffffffffffffff8082111562002e24578586fd5b62002e328883890162002c27565b9550602087013591508082111562002e48578485fd5b5062002e578782880162002c27565b949794965050505060408301359260600135919050565b60006020828403121562002e80578081fd5b813567ffffffffffffffff81111562002e97578182fd5b620022448482850162002c27565b6000806040838503121562002eb8578182fd5b823567ffffffffffffffff81111562002ecf578283fd5b62002edd8582860162002c27565b92505062002ded6020840162002c0e565b6000815180845262002f088160208601602086016200343b565b601f01601f19169290920160200192915050565b60008151835260208201516060602085015262002f3d606085018262002eee565b6040938401516001600160f01b031916949093019390935250919050565b6000825162002f6f8184602087016200343b565b9190910192915050565b6001600160a01b0391909116815260200190565b6001600160a01b0384811682528316602082015260606040820181905260009062002fbb9083018462002eee565b95945050505050565b6001600160a01b0386811682528516602082015260a06040820181905260009062002ff29083018662002eee565b6001600160f01b0319948516606084015292909316608090910152949350505050565b6000602080830181845280855180835260408601915060408482028701019250838701855b828110156200306c57603f198886030184526200305985835162002f1c565b945092850192908501906001016200303a565b5092979650505050505050565b901515815260200190565b6001600160f01b031991909116815260200190565b6001600160a01b0392831681529116602082015260400190565b60006020825262002cbf602083018462002eee565b60208082526029908201527f5468697320636f6e747261637420686173206e6f74206265656e2072656769736040820152681d195c9959081e595d60ba1b606082015260800190565b60208082526035908201527f757067726164652077656e742077726f6e67206c6f676963206164647265737360408201527465732063616e6e6f74206265207468652073616d6560581b606082015260800190565b60208082526050908201527f416c6c20636f6e747261637473206d75737420696d706c656d656e7420274f7760408201527f6e61626c655570677261646561626c65272066726f6d204f70656e5a6570706560608201526f6c696e20286f722073696d696c61722960801b608082015260a00190565b60208082526037908201527f7468697320636f6e747261637420697320616c7265616479207570677261646560408201527632103a37903a3432903630ba32b9ba103b32b939b4b7b760491b606082015260800190565b60208082526026908201527f436f6e7472616374207479706520706172616d6574657220646f6573206e6f7460408201526508195e1a5cdd60d21b606082015260800190565b60208082526036908201527f4f6e6c7920636f6e74726163742773206f776e65722069732061626c6520746f604082015275081d5c19dc985919481d1a1a5cc818dbdb9d1c9858dd60521b606082015260800190565b6020808252601c908201527f74686973207479706520697320616c726561647920646566696e656400000000604082015260600190565b60208082526038908201527f746869732074797065206973206e6f7420646566696e65642c20757365202773604082015277195d151e5c1949c8199d5b98dd1a5bdb881a5b9cdd19585960421b606082015260800190565b6020808252602c908201527f6e65772076657273696f6e206d7573742062652067726561746572207468616e60408201526b2063757272656e74206f6e6560a01b606082015260800190565b60006020825260018060a01b0380845116602084015280602085015116604084015280604085015116606084015250606083015160e06080840152620033f561010084018262002eee565b905061ffff60f01b60808501511660a084015260a084015160c084015260c084015160e08401528091505092915050565b60006020825262002cbf602083018462002f1c565b60005b83811015620034585781810151838201526020016200343e565b8381111562003468576000848401525b50505050565b6001600160a01b03811681146200149b57600080fdfe60806040526040516108dc3803806108dc8339818101604052606081101561002657600080fd5b8151602083015160408085018051915193959294830192918464010000000082111561005157600080fd5b90830190602082018581111561006657600080fd5b825164010000000081118282018810171561008057600080fd5b82525081516020918201929091019080838360005b838110156100ad578181015183820152602001610095565b50505050905090810190601f1680156100da5780820380516001836020036101000a031916815260200191505b50604052508491508290506100ee826101bf565b8051156101a6576000826001600160a01b0316826040518082805190602001908083835b602083106101315780518252601f199092019160209182019101610112565b6001836020036101000a038019825116818451168082178552505050505050905001915050600060405180830381855af49150503d8060008114610191576040519150601f19603f3d011682016040523d82523d6000602084013e610196565b606091505b50509050806101a457600080fd5b505b506101ae9050565b6101b782610231565b50505061025b565b6101d28161025560201b6103b41760201c565b61020d5760405162461bcd60e51b81526004018080602001828103825260368152602001806108a66036913960400191505060405180910390fd5b7f360894a13ba1a3210667c828492db98dca3e2076cc3735a920a3ca505d382bbc55565b7fb53127684a568b3173ae13b9f8a6016e243e63b6e8ee1178d6a717850b5d610355565b3b151590565b61063c8061026a6000396000f3fe60806040526004361061004e5760003560e01c80633659cfe6146100655780634f1ef286146100985780635c60da1b146101185780638f28397014610149578063f851a4401461017c5761005d565b3661005d5761005b610191565b005b61005b610191565b34801561007157600080fd5b5061005b6004803603602081101561008857600080fd5b50356001600160a01b03166101ab565b61005b600480360360408110156100ae57600080fd5b6001600160a01b0382351691908101906040810160208201356401000000008111156100d957600080fd5b8201836020820111156100eb57600080fd5b8035906020019184600183028401116401000000008311171561010d57600080fd5b5090925090506101e5565b34801561012457600080fd5b5061012d610292565b604080516001600160a01b039092168252519081900360200190f35b34801561015557600080fd5b5061005b6004803603602081101561016c57600080fd5b50356001600160a01b03166102cf565b34801561018857600080fd5b5061012d610389565b6101996103ba565b6101a96101a461041a565b61043f565b565b6101b3610463565b6001600160a01b0316336001600160a01b031614156101da576101d581610488565b6101e2565b6101e2610191565b50565b6101ed610463565b6001600160a01b0316336001600160a01b031614156102855761020f83610488565b6000836001600160a01b031683836040518083838082843760405192019450600093509091505080830381855af49150503d806000811461026c576040519150601f19603f3d011682016040523d82523d6000602084013e610271565b606091505b505090508061027f57600080fd5b5061028d565b61028d610191565b505050565b600061029c610463565b6001600160a01b0316336001600160a01b031614156102c4576102bd61041a565b90506102cc565b6102cc610191565b90565b6102d7610463565b6001600160a01b0316336001600160a01b031614156101da576001600160a01b0381166103355760405162461bcd60e51b815260040180806020018281038252603a815260200180610555603a913960400191505060405180910390fd5b7f7e644d79422f17c01e4894b5f4f588d331ebfa28653d42ae832dc59e38c9798f61035e610463565b604080516001600160a01b03928316815291841660208301528051918290030190a16101d5816104c8565b6000610393610463565b6001600160a01b0316336001600160a01b031614156102c4576102bd610463565b3b151590565b6103c2610463565b6001600160a01b0316336001600160a01b031614156104125760405162461bcd60e51b81526004018080602001828103825260428152602001806105c56042913960600191505060405180910390fd5b6101a96101a9565b7f360894a13ba1a3210667c828492db98dca3e2076cc3735a920a3ca505d382bbc5490565b3660008037600080366000845af43d6000803e80801561045e573d6000f35b3d6000fd5b7fb53127684a568b3173ae13b9f8a6016e243e63b6e8ee1178d6a717850b5d61035490565b610491816104ec565b6040516001600160a01b038216907fbc7cd75a20ee27fd9adebab32041f755214dbc6bffa90cc0225b39da2e5c2d3b90600090a250565b7fb53127684a568b3173ae13b9f8a6016e243e63b6e8ee1178d6a717850b5d610355565b6104f5816103b4565b6105305760405162461bcd60e51b815260040180806020018281038252603681526020018061058f6036913960400191505060405180910390fd5b7f360894a13ba1a3210667c828492db98dca3e2076cc3735a920a3ca505d382bbc5556fe5472616e73706172656e745570677261646561626c6550726f78793a206e65772061646d696e20697320746865207a65726f20616464726573735570677261646561626c6550726f78793a206e657720696d706c656d656e746174696f6e206973206e6f74206120636f6e74726163745472616e73706172656e745570677261646561626c6550726f78793a2061646d696e2063616e6e6f742066616c6c6261636b20746f2070726f787920746172676574a2646970667358221220767e4601d697e7af13164a30c0a4ed6658db7281c096e0310b07a9984b5f107b64736f6c634300070600335570677261646561626c6550726f78793a206e657720696d706c656d656e746174696f6e206973206e6f74206120636f6e7472616374608060405234801561001057600080fd5b50600061001b61006a565b600080546001600160a01b0319166001600160a01b0383169081178255604051929350917f8be0079c531659141344cd1fd0a4f28419497f9722a3daafe3b4186f6b6457e0908290a35061006e565b3390565b6108398061007d6000396000f3fe60806040526004361061006b5760003560e01c8063204e1c7a14610070578063715018a6146100bf5780637eff275e146100d65780638da5cb5b146101115780639623609d1461012657806399a88ec4146101e5578063f2fde38b14610220578063f3b7dead14610253575b600080fd5b34801561007c57600080fd5b506100a36004803603602081101561009357600080fd5b50356001600160a01b0316610286565b604080516001600160a01b039092168252519081900360200190f35b3480156100cb57600080fd5b506100d4610318565b005b3480156100e257600080fd5b506100d4600480360360408110156100f957600080fd5b506001600160a01b03813581169160200135166103ba565b34801561011d57600080fd5b506100a361047d565b6100d46004803603606081101561013c57600080fd5b6001600160a01b03823581169260208101359091169181019060608101604082013564010000000081111561017057600080fd5b82018360208201111561018257600080fd5b803590602001918460018302840111640100000000831117156101a457600080fd5b91908080601f01602080910402602001604051908101604052809392919081815260200183838082843760009201919091525092955061048c945050505050565b3480156101f157600080fd5b506100d46004803603604081101561020857600080fd5b506001600160a01b03813581169160200135166105bb565b34801561022c57600080fd5b506100d46004803603602081101561024357600080fd5b50356001600160a01b0316610662565b34801561025f57600080fd5b506100a36004803603602081101561027657600080fd5b50356001600160a01b031661075a565b6000806000836001600160a01b03166040518080635c60da1b60e01b8152506004019050600060405180830381855afa9150503d80600081146102e5576040519150601f19603f3d011682016040523d82523d6000602084013e6102ea565b606091505b5091509150816102f957600080fd5b80806020019051602081101561030e57600080fd5b5051949350505050565b6103206107b9565b6000546001600160a01b03908116911614610370576040805162461bcd60e51b815260206004820181905260248201526000805160206107e4833981519152604482015290519081900360640190fd5b600080546040516001600160a01b03909116907f8be0079c531659141344cd1fd0a4f28419497f9722a3daafe3b4186f6b6457e0908390a3600080546001600160a01b0319169055565b6103c26107b9565b6000546001600160a01b03908116911614610412576040805162461bcd60e51b815260206004820181905260248201526000805160206107e4833981519152604482015290519081900360640190fd5b816001600160a01b0316638f283970826040518263ffffffff1660e01b815260040180826001600160a01b03168152602001915050600060405180830381600087803b15801561046157600080fd5b505af1158015610475573d6000803e3d6000fd5b505050505050565b6000546001600160a01b031690565b6104946107b9565b6000546001600160a01b039081169116146104e4576040805162461bcd60e51b815260206004820181905260248201526000805160206107e4833981519152604482015290519081900360640190fd5b826001600160a01b0316634f1ef2863484846040518463ffffffff1660e01b815260040180836001600160a01b0316815260200180602001828103825283818151815260200191508051906020019080838360005b83811015610551578181015183820152602001610539565b50505050905090810190601f16801561057e5780820380516001836020036101000a031916815260200191505b5093505050506000604051808303818588803b15801561059d57600080fd5b505af11580156105b1573d6000803e3d6000fd5b5050505050505050565b6105c36107b9565b6000546001600160a01b03908116911614610613576040805162461bcd60e51b815260206004820181905260248201526000805160206107e4833981519152604482015290519081900360640190fd5b816001600160a01b0316633659cfe6826040518263ffffffff1660e01b815260040180826001600160a01b03168152602001915050600060405180830381600087803b15801561046157600080fd5b61066a6107b9565b6000546001600160a01b039081169116146106ba576040805162461bcd60e51b815260206004820181905260248201526000805160206107e4833981519152604482015290519081900360640190fd5b6001600160a01b0381166106ff5760405162461bcd60e51b81526004018080602001828103825260268152602001806107be6026913960400191505060405180910390fd5b600080546040516001600160a01b03808516939216917f8be0079c531659141344cd1fd0a4f28419497f9722a3daafe3b4186f6b6457e091a3600080546001600160a01b0319166001600160a01b0392909216919091179055565b6000806000836001600160a01b031660405180806303e1469160e61b8152506004019050600060405180830381855afa9150503d80600081146102e5576040519150601f19603f3d011682016040523d82523d6000602084013e6102ea565b339056fe4f776e61626c653a206e6577206f776e657220697320746865207a65726f20616464726573734f776e61626c653a2063616c6c6572206973206e6f7420746865206f776e6572a26469706673582212203815074a36a835aa6d5a10ecaea9975a6df34dbe8458ba1df0dc7247dbdd5f1364736f6c634300070600334f776e61626c653a206e6577206f776e657220697320746865207a65726f2061646472657373496e697469616c697a61626c653a20636f6e747261637420697320616c726561647920696e697469616c697a65644f776e61626c653a2063616c6c6572206973206e6f7420746865206f776e65728be0079c531659141344cd1fd0a4f28419497f9722a3daafe3b4186f6b6457e0a2646970667358221220f9b3593ed3d55b3c6e2aab70c84ded1443d880405f750264aad4a31b9e60c22a64736f6c63430007060033",
  "linkReferences": {},
  "deployedLinkReferences": {}
}