{
  "_format": "hh-sol-artifact-1",
  "contractName": "MyToken",
  "sourceName": "contracts/MyToken.sol",
  "abi": [
    {
      "anonymous": false,
      "inputs": [
        {
          "indexed": true,
          "internalType": "address",
          "name": "owner",
          "type": "address"
        },
        {
          "indexed": true,
          "internalType": "address",
          "name": "spender",
          "type": "address"
        },
        {
          "indexed": false,
          "internalType": "uint256",
          "name": "value",
          "type": "uint256"
        }
      ],
      "name": "Approval",
      "type": "event"
    },
    {
      "anonymous": false,
      "inputs": [
        {
          "indexed": true,
          "internalType": "address",
          "name": "previousOwner",
          "type": "address"
        },
        {
          "indexed": true,
          "internalType": "address",
          "name": "newOwner",
          "type": "address"
        }
      ],
      "name": "OwnershipTransferred",
      "type": "event"
    },
    {
      "anonymous": false,
      "inputs": [
        {
          "indexed": true,
          "internalType": "address",
          "name": "tokenAddr",
          "type": "address"
        },
        {
          "indexed": true,
          "internalType": "address",
          "name": "byAccount",
          "type": "address"
        }
      ],
      "name": "TokenInitialized",
      "type": "event"
    },
    {
      "anonymous": false,
      "inputs": [
        {
          "indexed": true,
          "internalType": "address",
          "name": "from",
          "type": "address"
        },
        {
          "indexed": true,
          "internalType": "address",
          "name": "to",
          "type": "address"
        },
        {
          "indexed": false,
          "internalType": "uint256",
          "name": "value",
          "type": "uint256"
        }
      ],
      "name": "Transfer",
      "type": "event"
    },
    {
      "inputs": [
        {
          "internalType": "address",
          "name": "owner",
          "type": "address"
        },
        {
          "internalType": "address",
          "name": "spender",
          "type": "address"
        }
      ],
      "name": "allowance",
      "outputs": [
        {
          "internalType": "uint256",
          "name": "",
          "type": "uint256"
        }
      ],
      "stateMutability": "view",
      "type": "function"
    },
    {
      "inputs": [
        {
          "internalType": "address",
          "name": "spender",
          "type": "address"
        },
        {
          "internalType": "uint256",
          "name": "amount",
          "type": "uint256"
        }
      ],
      "name": "approve",
      "outputs": [
        {
          "internalType": "bool",
          "name": "",
          "type": "bool"
        }
      ],
      "stateMutability": "nonpayable",
      "type": "function"
    },
    {
      "inputs": [
        {
          "internalType": "address",
          "name": "account",
          "type": "address"
        }
      ],
      "name": "balanceOf",
      "outputs": [
        {
          "internalType": "uint256",
          "name": "",
          "type": "uint256"
        }
      ],
      "stateMutability": "view",
      "type": "function"
    },
    {
      "inputs": [],
      "name": "decimals",
      "outputs": [
        {
          "internalType": "uint8",
          "name": "",
          "type": "uint8"
        }
      ],
      "stateMutability": "view",
      "type": "function"
    },
    {
      "inputs": [
        {
          "internalType": "address",
          "name": "spender",
          "type": "address"
        },
        {
          "internalType": "uint256",
          "name": "subtractedValue",
          "type": "uint256"
        }
      ],
      "name": "decreaseAllowance",
      "outputs": [
        {
          "internalType": "bool",
          "name": "",
          "type": "bool"
        }
      ],
      "stateMutability": "nonpayable",
      "type": "function"
    },
    {
      "inputs": [
        {
          "internalType": "address",
          "name": "spender",
          "type": "address"
        },
        {
          "internalType": "uint256",
          "name": "addedValue",
          "type": "uint256"
        }
      ],
      "name": "increaseAllowance",
      "outputs": [
        {
          "internalType": "bool",
          "name": "",
          "type": "bool"
        }
      ],
      "stateMutability": "nonpayable",
      "type": "function"
    },
    {
      "inputs": [
        {
          "internalType": "address",
          "name": "_richOne",
          "type": "address"
        }
      ],
      "name": "initialize",
      "outputs": [],
      "stateMutability": "nonpayable",
      "type": "function"
    },
    {
      "inputs": [],
      "name": "name",
      "outputs": [
        {
          "internalType": "string",
          "name": "",
          "type": "string"
        }
      ],
      "stateMutability": "view",
      "type": "function"
    },
    {
      "inputs": [],
      "name": "owner",
      "outputs": [
        {
          "internalType": "address",
          "name": "",
          "type": "address"
        }
      ],
      "stateMutability": "view",
      "type": "function"
    },
    {
      "inputs": [],
      "name": "renounceOwnership",
      "outputs": [],
      "stateMutability": "nonpayable",
      "type": "function"
    },
    {
      "inputs": [],
      "name": "symbol",
      "outputs": [
        {
          "internalType": "string",
          "name": "",
          "type": "string"
        }
      ],
      "stateMutability": "view",
      "type": "function"
    },
    {
      "inputs": [],
      "name": "totalSupply",
      "outputs": [
        {
          "internalType": "uint256",
          "name": "",
          "type": "uint256"
        }
      ],
      "stateMutability": "view",
      "type": "function"
    },
    {
      "inputs": [
        {
          "internalType": "address",
          "name": "recipient",
          "type": "address"
        },
        {
          "internalType": "uint256",
          "name": "amount",
          "type": "uint256"
        }
      ],
      "name": "transfer",
      "outputs": [
        {
          "internalType": "bool",
          "name": "",
          "type": "bool"
        }
      ],
      "stateMutability": "nonpayable",
      "type": "function"
    },
    {
      "inputs": [
        {
          "internalType": "address",
          "name": "sender",
          "type": "address"
        },
        {
          "internalType": "address",
          "name": "recipient",
          "type": "address"
        },
        {
          "internalType": "uint256",
          "name": "amount",
          "type": "uint256"
        }
      ],
      "name": "transferFrom",
      "outputs": [
        {
          "internalType": "bool",
          "name": "",
          "type": "bool"
        }
      ],
      "stateMutability": "nonpayable",
      "type": "function"
    },
    {
      "inputs": [
        {
          "internalType": "address",
          "name": "newOwner",
          "type": "address"
        }
      ],
      "name": "transferOwnership",
      "outputs": [],
      "stateMutability": "nonpayable",
      "type": "function"
    }
  ],
  "bytecode": "0x608060405234801561001057600080fd5b5061156e806100206000396000f3fe608060405234801561001057600080fd5b50600436106100d55760003560e01c8063715018a611610087578063715018a61461017b5780638da5cb5b1461018557806395d89b411461019a578063a457c2d7146101a2578063a9059cbb146101b5578063c4d66de8146101c8578063dd62ed3e146101db578063f2fde38b146101ee576100d5565b806306fdde03146100da578063095ea7b3146100f857806318160ddd1461011857806323b872dd1461012d578063313ce56714610140578063395093511461015557806370a0823114610168575b600080fd5b6100e2610201565b6040516100ef9190610fc3565b60405180910390f35b61010b610106366004610f7b565b610293565b6040516100ef9190610fb8565b6101206102b0565b6040516100ef919061132e565b61010b61013b366004610f40565b6102b6565b610148610358565b6040516100ef9190611337565b61010b610163366004610f7b565b61035d565b610120610176366004610ef4565b6103ac565b6101836103cb565b005b61018d610442565b6040516100ef9190610fa4565b6100e2610451565b61010b6101b0366004610f7b565b610460565b61010b6101c3366004610f7b565b6104db565b6101836101d6366004610ef4565b6104ef565b6101206101e9366004610f0e565b610815565b6101836101fc366004610ef4565b610840565b606060368054610210906114a7565b80601f016020809104026020016040519081016040528092919081815260200182805461023c906114a7565b80156102895780601f1061025e57610100808354040283529160200191610289565b820191906000526020600020905b81548152906001019060200180831161026c57829003601f168201915b5050505050905090565b60006102a76102a06108ef565b84846108f3565b50600192915050565b60355490565b60006102c38484846109a7565b6001600160a01b0384166000908152603460205260408120816102e46108ef565b6001600160a01b03166001600160a01b03168152602001908152602001600020549050828110156103305760405162461bcd60e51b8152600401610327906111ac565b60405180910390fd5b61034b8561033c6108ef565b6103468685611490565b6108f3565b60019150505b9392505050565b601290565b60006102a761036a6108ef565b8484603460006103786108ef565b6001600160a01b03908116825260208083019390935260409182016000908120918b16815292529020546103469190611345565b6001600160a01b0381166000908152603360205260409020545b919050565b6103d36108ef565b6001600160a01b03166103e4610442565b6001600160a01b03161461040a5760405162461bcd60e51b8152600401610327906111f4565b6065546040516000916001600160a01b0316906000805160206114f9833981519152908390a3606580546001600160a01b0319169055565b6065546001600160a01b031690565b606060378054610210906114a7565b6000806034600061046f6108ef565b6001600160a01b03908116825260208083019390935260409182016000908120918816815292529020549050828110156104bb5760405162461bcd60e51b8152600401610327906112b2565b6104d16104c66108ef565b856103468685611490565b5060019392505050565b60006102a76104e86108ef565b84846109a7565b600054610100900460ff1680610508575060005460ff16155b6105245760405162461bcd60e51b81526004016103279061115e565b600054610100900460ff1615801561054f576000805460ff1961ff0019909116610100171660011790555b6509184e72a0006097556040805180820190915260088082526726bc902a37b5b2b760c11b602090920191825261058891609891610e44565b506040805180820190915260038082526234b7b160e91b60209092019182526105b391609991610e44565b506000609754116105d65760405162461bcd60e51b815260040161032790611059565b6105de610abd565b6106fc609880546105ee906114a7565b80601f016020809104026020016040519081016040528092919081815260200182805461061a906114a7565b80156106675780601f1061063c57610100808354040283529160200191610667565b820191906000526020600020905b81548152906001019060200180831161064a57829003601f168201915b505050505060998054610679906114a7565b80601f01602080910402602001604051908101604052809291908181526020018280546106a5906114a7565b80156106f25780601f106106c7576101008083540402835291602001916106f2565b820191906000526020600020905b8154815290600101906020018083116106d557829003601f168201915b5050505050610b42565b600061070a6012600a6113a3565b6097546107179190611471565b90506107238382610bcb565b826001600160a01b031663e66738cd6040518163ffffffff1660e01b8152600401600060405180830381600087803b15801561075e57600080fd5b505af1158015610772573d6000803e3d6000fd5b5050505061077e6108ef565b6001600160a01b031660006001600160a01b0316600080516020611519833981519152836040516107af919061132e565b60405180910390a36107bf6108ef565b6001600160a01b0316306001600160a01b03167f0e474375f00439aaa979b958831081dcafa64837b226c4e5224cef141618df2460405160405180910390a3508015610811576000805461ff00191690555b5050565b6001600160a01b03918216600090815260346020908152604080832093909416825291909152205490565b6108486108ef565b6001600160a01b0316610859610442565b6001600160a01b03161461087f5760405162461bcd60e51b8152600401610327906111f4565b6001600160a01b0381166108a55760405162461bcd60e51b815260040161032790611090565b6065546040516001600160a01b038084169216906000805160206114f983398151915290600090a3606580546001600160a01b0319166001600160a01b0392909216919091179055565b3390565b6001600160a01b0383166109195760405162461bcd60e51b81526004016103279061126e565b6001600160a01b03821661093f5760405162461bcd60e51b8152600401610327906110d6565b6001600160a01b0380841660008181526034602090815260408083209487168084529490915290819020849055517f8c5be1e5ebec7d5bd14f71427d1e84f3dd0314c0f7b2291e5b200ac8c7c3b9259061099a90859061132e565b60405180910390a3505050565b6001600160a01b0383166109cd5760405162461bcd60e51b815260040161032790611229565b6001600160a01b0382166109f35760405162461bcd60e51b815260040161032790611016565b6109fe838383610bc6565b6001600160a01b03831660009081526033602052604090205481811015610a375760405162461bcd60e51b815260040161032790611118565b610a418282611490565b6001600160a01b038086166000908152603360205260408082209390935590851681529081208054849290610a77908490611345565b92505081905550826001600160a01b0316846001600160a01b031660008051602061151983398151915284604051610aaf919061132e565b60405180910390a350505050565b600054610100900460ff1680610ad6575060005460ff16155b610af25760405162461bcd60e51b81526004016103279061115e565b600054610100900460ff16158015610b1d576000805460ff1961ff0019909116610100171660011790555b610b25610c79565b610b2d610cec565b8015610b3f576000805461ff00191690555b50565b600054610100900460ff1680610b5b575060005460ff16155b610b775760405162461bcd60e51b81526004016103279061115e565b600054610100900460ff16158015610ba2576000805460ff1961ff0019909116610100171660011790555b610baa610c79565b610bb48383610da6565b8015610bc6576000805461ff00191690555b505050565b6001600160a01b038216610bf15760405162461bcd60e51b8152600401610327906112f7565b610bfd60008383610bc6565b8060356000828254610c0f9190611345565b90915550506001600160a01b03821660009081526033602052604081208054839290610c3c908490611345565b90915550506040516001600160a01b0383169060009060008051602061151983398151915290610c6d90859061132e565b60405180910390a35050565b600054610100900460ff1680610c92575060005460ff16155b610cae5760405162461bcd60e51b81526004016103279061115e565b600054610100900460ff16158015610b2d576000805460ff1961ff0019909116610100171660011790558015610b3f576000805461ff001916905550565b600054610100900460ff1680610d05575060005460ff16155b610d215760405162461bcd60e51b81526004016103279061115e565b600054610100900460ff16158015610d4c576000805460ff1961ff0019909116610100171660011790555b6000610d566108ef565b606580546001600160a01b0319166001600160a01b038316908117909155604051919250906000906000805160206114f9833981519152908290a3508015610b3f576000805461ff001916905550565b600054610100900460ff1680610dbf575060005460ff16155b610ddb5760405162461bcd60e51b81526004016103279061115e565b600054610100900460ff16158015610e06576000805460ff1961ff0019909116610100171660011790555b8251610e19906036906020860190610e44565b508151610e2d906037906020850190610e44565b508015610bc6576000805461ff0019169055505050565b828054610e50906114a7565b90600052602060002090601f016020900481019282610e725760008555610eb8565b82601f10610e8b57805160ff1916838001178555610eb8565b82800160010185558215610eb8579182015b82811115610eb8578251825591602001919060010190610e9d565b50610ec4929150610ec8565b5090565b5b80821115610ec45760008155600101610ec9565b80356001600160a01b03811681146103c657600080fd5b600060208284031215610f05578081fd5b61035182610edd565b60008060408385031215610f20578081fd5b610f2983610edd565b9150610f3760208401610edd565b90509250929050565b600080600060608486031215610f54578081fd5b610f5d84610edd565b9250610f6b60208501610edd565b9150604084013590509250925092565b60008060408385031215610f8d578182fd5b610f9683610edd565b946020939093013593505050565b6001600160a01b0391909116815260200190565b901515815260200190565b6000602080835283518082850152825b81811015610fef57858101830151858201604001528201610fd3565b818111156110005783604083870101525b50601f01601f1916929092016040019392505050565b60208082526023908201527f45524332303a207472616e7366657220746f20746865207a65726f206164647260408201526265737360e81b606082015260800190565b6020808252601e908201527f616d6f756e7420686173206f2062652067726561746572207468616e20300000604082015260600190565b60208082526026908201527f4f776e61626c653a206e6577206f776e657220697320746865207a65726f206160408201526564647265737360d01b606082015260800190565b60208082526022908201527f45524332303a20617070726f766520746f20746865207a65726f206164647265604082015261737360f01b606082015260800190565b60208082526026908201527f45524332303a207472616e7366657220616d6f756e7420657863656564732062604082015265616c616e636560d01b606082015260800190565b6020808252602e908201527f496e697469616c697a61626c653a20636f6e747261637420697320616c72656160408201526d191e481a5b9a5d1a585b1a5e995960921b606082015260800190565b60208082526028908201527f45524332303a207472616e7366657220616d6f756e74206578636565647320616040820152676c6c6f77616e636560c01b606082015260800190565b6020808252818101527f4f776e61626c653a2063616c6c6572206973206e6f7420746865206f776e6572604082015260600190565b60208082526025908201527f45524332303a207472616e736665722066726f6d20746865207a65726f206164604082015264647265737360d81b606082015260800190565b60208082526024908201527f45524332303a20617070726f76652066726f6d20746865207a65726f206164646040820152637265737360e01b606082015260800190565b60208082526025908201527f45524332303a2064656372656173656420616c6c6f77616e63652062656c6f77604082015264207a65726f60d81b606082015260800190565b6020808252601f908201527f45524332303a206d696e7420746f20746865207a65726f206164647265737300604082015260600190565b90815260200190565b60ff91909116815260200190565b60008219821115611358576113586114e2565b500190565b80825b600180861161136f575061139a565b818704821115611381576113816114e2565b8086161561138e57918102915b9490941c938002611360565b94509492505050565b600061035160001984846000826113bc57506001610351565b816113c957506000610351565b81600181146113df57600281146113e957611416565b6001915050610351565b60ff8411156113fa576113fa6114e2565b6001841b915084821115611410576114106114e2565b50610351565b5060208310610133831016604e8410600b8410161715611449575081810a83811115611444576114446114e2565b610351565b611456848484600161135d565b808604821115611468576114686114e2565b02949350505050565b600081600019048311821515161561148b5761148b6114e2565b500290565b6000828210156114a2576114a26114e2565b500390565b6002810460018216806114bb57607f821691505b602082108114156114dc57634e487b7160e01b600052602260045260246000fd5b50919050565b634e487b7160e01b600052601160045260246000fdfe8be0079c531659141344cd1fd0a4f28419497f9722a3daafe3b4186f6b6457e0ddf252ad1be2c89b69c2b068fc378daa952ba7f163c4a11628f55a4df523b3efa2646970667358221220278592b1dea650061ddb8d6355df3a63ce3d1c4ac82d3d9ca1e5855eba5a139664736f6c63430008000033",
  "linkReferences": {},
  "deployedLinkReferences": {}
}