{
  "_format": "hh-sol-artifact-1",
  "contractName": "IobManager",
  "sourceName": "contracts/IobManager.sol",
  "abi": [
    {
      "anonymous": false,
      "inputs": [
        {
          "indexed": true,
          "internalType": "bytes32",
          "name": "spender",
          "type": "bytes32"
        },
        {
          "indexed": true,
          "internalType": "uint256",
          "name": "amount",
          "type": "uint256"
        }
      ],
      "name": "Approval",
      "type": "event"
    },
    {
      "anonymous": false,
      "inputs": [
        {
          "indexed": true,
          "internalType": "bytes32",
          "name": "recipient",
          "type": "bytes32"
        },
        {
          "indexed": true,
          "internalType": "uint256",
          "name": "amount",
          "type": "uint256"
        }
      ],
      "name": "Deposit",
      "type": "event"
    },
    {
      "anonymous": false,
      "inputs": [
        {
          "indexed": true,
          "internalType": "address",
          "name": "previousOwner",
          "type": "address"
        },
        {
          "indexed": true,
          "internalType": "address",
          "name": "newOwner",
          "type": "address"
        }
      ],
      "name": "OwnershipTransferred",
      "type": "event"
    },
    {
      "anonymous": false,
      "inputs": [
        {
          "indexed": true,
          "internalType": "bytes32",
          "name": "spender",
          "type": "bytes32"
        },
        {
          "indexed": true,
          "internalType": "bytes32",
          "name": "recipient",
          "type": "bytes32"
        },
        {
          "indexed": true,
          "internalType": "uint256",
          "name": "amount",
          "type": "uint256"
        }
      ],
      "name": "Transfer",
      "type": "event"
    },
    {
      "anonymous": false,
      "inputs": [
        {
          "indexed": true,
          "internalType": "bytes32",
          "name": "id",
          "type": "bytes32"
        },
        {
          "indexed": true,
          "internalType": "string",
          "name": "name",
          "type": "string"
        },
        {
          "indexed": false,
          "internalType": "string",
          "name": "password",
          "type": "string"
        }
      ],
      "name": "UserCreated",
      "type": "event"
    },
    {
      "anonymous": false,
      "inputs": [
        {
          "indexed": true,
          "internalType": "bytes32",
          "name": "id",
          "type": "bytes32"
        }
      ],
      "name": "UserDeleted",
      "type": "event"
    },
    {
      "anonymous": false,
      "inputs": [
        {
          "indexed": true,
          "internalType": "bytes32",
          "name": "id",
          "type": "bytes32"
        },
        {
          "indexed": true,
          "internalType": "string",
          "name": "newName",
          "type": "string"
        },
        {
          "indexed": false,
          "internalType": "string",
          "name": "newPassword",
          "type": "string"
        }
      ],
      "name": "UserEdited",
      "type": "event"
    },
    {
      "anonymous": false,
      "inputs": [
        {
          "indexed": true,
          "internalType": "bytes32",
          "name": "spender",
          "type": "bytes32"
        },
        {
          "indexed": true,
          "internalType": "uint256",
          "name": "amount",
          "type": "uint256"
        }
      ],
      "name": "Withdraw",
      "type": "event"
    },
    {
      "inputs": [
        {
          "internalType": "bytes32",
          "name": "_id",
          "type": "bytes32"
        }
      ],
      "name": "deleteUser",
      "outputs": [],
      "stateMutability": "nonpayable",
      "type": "function"
    },
    {
      "inputs": [
        {
          "internalType": "bytes32",
          "name": "_recipientId",
          "type": "bytes32"
        },
        {
          "internalType": "uint256",
          "name": "_amount",
          "type": "uint256"
        }
      ],
      "name": "deposit",
      "outputs": [],
      "stateMutability": "nonpayable",
      "type": "function"
    },
    {
      "inputs": [
        {
          "internalType": "bytes32",
          "name": "_id",
          "type": "bytes32"
        },
        {
          "internalType": "string",
          "name": "_newName",
          "type": "string"
        },
        {
          "internalType": "string",
          "name": "_newPass",
          "type": "string"
        }
      ],
      "name": "editUser",
      "outputs": [],
      "stateMutability": "nonpayable",
      "type": "function"
    },
    {
      "inputs": [],
      "name": "getAllUsers",
      "outputs": [
        {
          "components": [
            {
              "internalType": "bytes32",
              "name": "id",
              "type": "bytes32"
            },
            {
              "internalType": "address",
              "name": "owner",
              "type": "address"
            },
            {
              "internalType": "string",
              "name": "name",
              "type": "string"
            },
            {
              "internalType": "string",
              "name": "password",
              "type": "string"
            },
            {
              "internalType": "uint256",
              "name": "dateCreated",
              "type": "uint256"
            },
            {
              "internalType": "uint256",
              "name": "dateModified",
              "type": "uint256"
            }
          ],
          "internalType": "struct User[]",
          "name": "",
          "type": "tuple[]"
        }
      ],
      "stateMutability": "view",
      "type": "function"
    },
    {
      "inputs": [],
      "name": "getMyUser",
      "outputs": [
        {
          "components": [
            {
              "internalType": "bytes32",
              "name": "id",
              "type": "bytes32"
            },
            {
              "internalType": "address",
              "name": "owner",
              "type": "address"
            },
            {
              "internalType": "string",
              "name": "name",
              "type": "string"
            },
            {
              "internalType": "string",
              "name": "password",
              "type": "string"
            },
            {
              "internalType": "uint256",
              "name": "dateCreated",
              "type": "uint256"
            },
            {
              "internalType": "uint256",
              "name": "dateModified",
              "type": "uint256"
            }
          ],
          "internalType": "struct User",
          "name": "",
          "type": "tuple"
        }
      ],
      "stateMutability": "view",
      "type": "function"
    },
    {
      "inputs": [
        {
          "internalType": "bytes32",
          "name": "_id",
          "type": "bytes32"
        }
      ],
      "name": "getUser",
      "outputs": [
        {
          "components": [
            {
              "internalType": "bytes32",
              "name": "id",
              "type": "bytes32"
            },
            {
              "internalType": "address",
              "name": "owner",
              "type": "address"
            },
            {
              "internalType": "string",
              "name": "name",
              "type": "string"
            },
            {
              "internalType": "string",
              "name": "password",
              "type": "string"
            },
            {
              "internalType": "uint256",
              "name": "dateCreated",
              "type": "uint256"
            },
            {
              "internalType": "uint256",
              "name": "dateModified",
              "type": "uint256"
            }
          ],
          "internalType": "struct User",
          "name": "",
          "type": "tuple"
        }
      ],
      "stateMutability": "view",
      "type": "function"
    },
    {
      "inputs": [
        {
          "internalType": "address",
          "name": "_owner",
          "type": "address"
        }
      ],
      "name": "getUserByOwner",
      "outputs": [
        {
          "components": [
            {
              "internalType": "bytes32",
              "name": "id",
              "type": "bytes32"
            },
            {
              "internalType": "address",
              "name": "owner",
              "type": "address"
            },
            {
              "internalType": "string",
              "name": "name",
              "type": "string"
            },
            {
              "internalType": "string",
              "name": "password",
              "type": "string"
            },
            {
              "internalType": "uint256",
              "name": "dateCreated",
              "type": "uint256"
            },
            {
              "internalType": "uint256",
              "name": "dateModified",
              "type": "uint256"
            }
          ],
          "internalType": "struct User",
          "name": "",
          "type": "tuple"
        }
      ],
      "stateMutability": "view",
      "type": "function"
    },
    {
      "inputs": [],
      "name": "initToken",
      "outputs": [],
      "stateMutability": "nonpayable",
      "type": "function"
    },
    {
      "inputs": [
        {
          "internalType": "address",
          "name": "_users",
          "type": "address"
        }
      ],
      "name": "initialize",
      "outputs": [],
      "stateMutability": "nonpayable",
      "type": "function"
    },
    {
      "inputs": [
        {
          "internalType": "string",
          "name": "_name",
          "type": "string"
        },
        {
          "internalType": "string",
          "name": "_password",
          "type": "string"
        }
      ],
      "name": "newUser",
      "outputs": [],
      "stateMutability": "nonpayable",
      "type": "function"
    },
    {
      "inputs": [],
      "name": "owner",
      "outputs": [
        {
          "internalType": "address",
          "name": "",
          "type": "address"
        }
      ],
      "stateMutability": "view",
      "type": "function"
    },
    {
      "inputs": [],
      "name": "renounceOwnership",
      "outputs": [],
      "stateMutability": "nonpayable",
      "type": "function"
    },
    {
      "inputs": [
        {
          "internalType": "bytes32",
          "name": "_spenderId",
          "type": "bytes32"
        },
        {
          "internalType": "bytes32",
          "name": "_recipientId",
          "type": "bytes32"
        },
        {
          "internalType": "uint256",
          "name": "_amount",
          "type": "uint256"
        }
      ],
      "name": "transfer",
      "outputs": [],
      "stateMutability": "nonpayable",
      "type": "function"
    },
    {
      "inputs": [
        {
          "internalType": "address",
          "name": "newOwner",
          "type": "address"
        }
      ],
      "name": "transferOwnership",
      "outputs": [],
      "stateMutability": "nonpayable",
      "type": "function"
    },
    {
      "inputs": [
        {
          "internalType": "bytes32",
          "name": "_spenderId",
          "type": "bytes32"
        },
        {
          "internalType": "uint256",
          "name": "_amount",
          "type": "uint256"
        }
      ],
      "name": "withdraw",
      "outputs": [],
      "stateMutability": "nonpayable",
      "type": "function"
    }
  ],
  "bytecode": "0x608060405234801561001057600080fd5b50611b3f806100206000396000f3fe608060405234801561001057600080fd5b50600436106100d55760003560e01c80638df9bf10116100875780638df9bf101461016e578063ae9f75e314610181578063c4d66de814610194578063daac7252146101a7578063e2842d79146101ba578063e66738cd146101cf578063ee7fb209146101d7578063f2fde38b146101df576100d5565b8063040cf020146100da5780631de26e16146100ef5780631f34563c146101025780635e5d4320146101155780636517579c14610128578063715018a6146101515780638da5cb5b14610159575b600080fd5b6100ed6100e8366004611648565b6101f2565b005b6100ed6100fd366004611648565b61038f565b6100ed610110366004611669565b61052a565b6100ed610123366004611584565b610691565b61013b610136366004611584565b61077d565b60405161014891906119d9565b60405180910390f35b6100ed610869565b6101616108f9565b60405161014891906117ae565b6100ed61017c3660046115df565b610908565b6100ed61018f3660046115b4565b610a0c565b6100ed6101a23660046114a9565b610c3c565b61013b6101b53660046114a9565b610d5c565b6101c2610dff565b60405161014891906117ff565b6100ed610ee8565b61013b610f42565b6100ed6101ed3660046114a9565b610ff8565b6101fa6110df565b6033546001600160a01b0390811691161461024a576040805162461bcd60e51b81526020600482018190526024820152600080516020611aca833981519152604482015290519081900360640190fd5b606654604051631945d5e760e21b81526000916001600160a01b031690636517579c9061027b90869060040161185f565b60006040518083038186803b15801561029357600080fd5b505afa1580156102a7573d6000803e3d6000fd5b505050506040513d6000823e601f3d908101601f191682016040526102cf91908101906116c9565b60655460208201516040516323b872dd60e01b81529293506001600160a01b03909116916323b872dd9161030991309087906004016117c2565b602060405180830381600087803b15801561032357600080fd5b505af1158015610337573d6000803e3d6000fd5b505050506040513d601f19601f8201168201806040525081019061035b9190611564565b5080516040518391907f4591ca0897d0d8e83f7153dfe0b2912125672084ab8d84be59ee13240a1778bc90600090a3505050565b6103976110df565b6033546001600160a01b039081169116146103e7576040805162461bcd60e51b81526020600482018190526024820152600080516020611aca833981519152604482015290519081900360640190fd5b606654604051631945d5e760e21b81526000916001600160a01b031690636517579c9061041890869060040161185f565b60006040518083038186803b15801561043057600080fd5b505afa158015610444573d6000803e3d6000fd5b505050506040513d6000823e601f3d908101601f1916820160405261046c91908101906116c9565b606554602082015160405163a9059cbb60e01b81529293506001600160a01b039091169163a9059cbb916104a49186906004016117e6565b602060405180830381600087803b1580156104be57600080fd5b505af11580156104d2573d6000803e3d6000fd5b505050506040513d601f19601f820116820180604052508101906104f69190611564565b5080516040518391907f98e783c3864bbf744a057ef605a2a61701c3b62b5ed68b3745b99094497daf1f90600090a3505050565b60685460ff166105555760405162461bcd60e51b815260040161054c9061191e565b60405180910390fd5b600061055f6110df565b6001600160a01b038116600090815260676020526040902054909150156105985760405162461bcd60e51b815260040161054c9061198a565b60665460405163c905022d60e01b81526000916001600160a01b03169063c905022d906105cd908790879087906004016118b0565b602060405180830381600087803b1580156105e757600080fd5b505af11580156105fb573d6000803e3d6000fd5b505050506040513d601f19601f8201168201806040525081019061061f919061159c565b6001600160a01b038316600090815260676020526040908190208290555190915061064b908590611792565b6040518091039020817fb18f53ae22ff56ddb27015ddd7d8b03adfadfd0fd8f3f35c4416b068f8c2a82685604051610683919061189d565b60405180910390a350505050565b600061069b6110df565b6001600160a01b03811660009081526067602052604090205490915082146106d55760405162461bcd60e51b815260040161054c906118ee565b6066546040516302f2ea1960e51b81526001600160a01b0390911690635e5d43209061070590859060040161185f565b600060405180830381600087803b15801561071f57600080fd5b505af1158015610733573d6000803e3d6000fd5b505050506001600160a01b0381166000908152606760205260408082208290555183917fc26eb30613e535870aeacfc24e58a8fb60e992f0d8bfe04ec9c98db26b53c5e591a25050565b610785611322565b61078d6110df565b6033546001600160a01b039081169116146107dd576040805162461bcd60e51b81526020600482018190526024820152600080516020611aca833981519152604482015290519081900360640190fd5b606654604051631945d5e760e21b81526001600160a01b0390911690636517579c9061080d90859060040161185f565b60006040518083038186803b15801561082557600080fd5b505afa158015610839573d6000803e3d6000fd5b505050506040513d6000823e601f3d908101601f1916820160405261086191908101906116c9565b90505b919050565b6108716110df565b6033546001600160a01b039081169116146108c1576040805162461bcd60e51b81526020600482018190526024820152600080516020611aca833981519152604482015290519081900360640190fd5b6033546040516000916001600160a01b031690600080516020611aea833981519152908390a3603380546001600160a01b0319169055565b6033546001600160a01b031690565b606760006109146110df565b6001600160a01b03166001600160a01b031681526020019081526020016000205483146109535760405162461bcd60e51b815260040161054c906118ee565b6066546040516308df9bf160e41b81526001600160a01b0390911690638df9bf109061098790869086908690600401611868565b600060405180830381600087803b1580156109a157600080fd5b505af11580156109b5573d6000803e3d6000fd5b50505050816040516109c79190611792565b6040518091039020837f1fe49f47881efe4970aa25a29f9592e1870b74f660ffc9c77d485830e530ffb6836040516109ff919061189d565b60405180910390a3505050565b610a146110df565b6033546001600160a01b03908116911614610a64576040805162461bcd60e51b81526020600482018190526024820152600080516020611aca833981519152604482015290519081900360640190fd5b606654604051631945d5e760e21b81526000916001600160a01b031690636517579c90610a9590879060040161185f565b60006040518083038186803b158015610aad57600080fd5b505afa158015610ac1573d6000803e3d6000fd5b505050506040513d6000823e601f3d908101601f19168201604052610ae991908101906116c9565b606654604051631945d5e760e21b81529192506000916001600160a01b0390911690636517579c90610b1f90879060040161185f565b60006040518083038186803b158015610b3757600080fd5b505afa158015610b4b573d6000803e3d6000fd5b505050506040513d6000823e601f3d908101601f19168201604052610b7391908101906116c9565b606554602080850151908301516040516323b872dd60e01b81529394506001600160a01b03909216926323b872dd92610bb1929188906004016117c2565b602060405180830381600087803b158015610bcb57600080fd5b505af1158015610bdf573d6000803e3d6000fd5b505050506040513d601f19601f82011682018060405250810190610c039190611564565b5080518251604051859291907fbc7a322f72742a0c810e1f76615f57ed3a5bbfcbd956d3d451b3158968faace990600090a45050505050565b600054610100900460ff1680610c555750610c556110e3565b80610c63575060005460ff16155b610c9e5760405162461bcd60e51b815260040180806020018281038252602e815260200180611a9c602e913960400191505060405180910390fd5b600054610100900460ff16158015610cc9576000805460ff1961ff0019909116610100171660011790555b610cd16110e9565b606680546001600160a01b0319166001600160a01b03848116919091179182905560408051631f28915760e01b815290519290911691631f2891579160048082019260009290919082900301818387803b158015610d2e57600080fd5b505af1158015610d42573d6000803e3d6000fd5b505050508015610d58576000805461ff00191690555b5050565b610d64611322565b610d6c6110df565b6033546001600160a01b03908116911614610dbc576040805162461bcd60e51b81526020600482018190526024820152600080516020611aca833981519152604482015290519081900360640190fd5b6066546001600160a01b0383811660009081526067602052604090819020549051631945d5e760e21b81529190921691636517579c9161080d919060040161185f565b6060610e096110df565b6033546001600160a01b03908116911614610e59576040805162461bcd60e51b81526020600482018190526024820152600080516020611aca833981519152604482015290519081900360640190fd5b606660009054906101000a90046001600160a01b03166001600160a01b031663e2842d796040518163ffffffff1660e01b815260040160006040518083038186803b158015610ea757600080fd5b505afa158015610ebb573d6000803e3d6000fd5b505050506040513d6000823e601f3d908101601f19168201604052610ee391908101906114cc565b905090565b60685460ff1615610f0b5760405162461bcd60e51b815260040161054c90611955565b610f136110df565b606580546001600160a01b0319166001600160a01b03929092169190911790556068805460ff19166001179055565b610f4a611322565b6066546001600160a01b0316636517579c60676000610f676110df565b6001600160a01b03166001600160a01b03168152602001908152602001600020546040518263ffffffff1660e01b8152600401610fa4919061185f565b60006040518083038186803b158015610fbc57600080fd5b505afa158015610fd0573d6000803e3d6000fd5b505050506040513d6000823e601f3d908101601f19168201604052610ee391908101906116c9565b6110006110df565b6033546001600160a01b03908116911614611050576040805162461bcd60e51b81526020600482018190526024820152600080516020611aca833981519152604482015290519081900360640190fd5b6001600160a01b0381166110955760405162461bcd60e51b8152600401808060200182810382526026815260200180611a766026913960400191505060405180910390fd5b6033546040516001600160a01b03808416921690600080516020611aea83398151915290600090a3603380546001600160a01b0319166001600160a01b0392909216919091179055565b3390565b303b1590565b600054610100900460ff168061110257506111026110e3565b80611110575060005460ff16155b61114b5760405162461bcd60e51b815260040180806020018281038252602e815260200180611a9c602e913960400191505060405180910390fd5b600054610100900460ff16158015611176576000805460ff1961ff0019909116610100171660011790555b61117e61119b565b61118661123b565b8015611198576000805461ff00191690555b50565b600054610100900460ff16806111b457506111b46110e3565b806111c2575060005460ff16155b6111fd5760405162461bcd60e51b815260040180806020018281038252602e815260200180611a9c602e913960400191505060405180910390fd5b600054610100900460ff16158015611186576000805460ff1961ff0019909116610100171660011790558015611198576000805461ff001916905550565b600054610100900460ff168061125457506112546110e3565b80611262575060005460ff16155b61129d5760405162461bcd60e51b815260040180806020018281038252602e815260200180611a9c602e913960400191505060405180910390fd5b600054610100900460ff161580156112c8576000805460ff1961ff0019909116610100171660011790555b60006112d26110df565b603380546001600160a01b0319166001600160a01b03831690811790915560405191925090600090600080516020611aea833981519152908290a3508015611198576000805461ff001916905550565b6040518060c001604052806000801916815260200160006001600160a01b03168152602001606081526020016060815260200160008152602001600081525090565b805161086481611a60565b600082601f83011261137f578081fd5b813561139261138d82611a0f565b6119ec565b8181528460208386010111156113a6578283fd5b816020850160208301379081016020019190915292915050565b600082601f8301126113d0578081fd5b81516113de61138d82611a0f565b8181528460208386010111156113f2578283fd5b611403826020830160208701611a30565b949350505050565b600060c0828403121561141c578081fd5b61142660c06119ec565b90508151815261143860208301611364565b602082015260408201516001600160401b038082111561145757600080fd5b611463858386016113c0565b6040840152606084015191508082111561147c57600080fd5b50611489848285016113c0565b6060830152506080820151608082015260a082015160a082015292915050565b6000602082840312156114ba578081fd5b81356114c581611a60565b9392505050565b600060208083850312156114de578182fd5b82516001600160401b03808211156114f4578384fd5b818501915085601f830112611507578384fd5b81518181111561151357fe5b61152084858302016119ec565b8181528481019250838501865b83811015611556576115448a88845189010161140b565b8552938601939086019060010161152d565b509098975050505050505050565b600060208284031215611575578081fd5b815180151581146114c5578182fd5b600060208284031215611595578081fd5b5035919050565b6000602082840312156115ad578081fd5b5051919050565b6000806000606084860312156115c8578182fd5b505081359360208301359350604090920135919050565b6000806000606084860312156115f3578283fd5b8335925060208401356001600160401b0380821115611610578384fd5b61161c8783880161136f565b93506040860135915080821115611631578283fd5b5061163e8682870161136f565b9150509250925092565b6000806040838503121561165a578182fd5b50508035926020909101359150565b6000806040838503121561167b578182fd5b82356001600160401b0380821115611691578384fd5b61169d8683870161136f565b935060208501359150808211156116b2578283fd5b506116bf8582860161136f565b9150509250929050565b6000602082840312156116da578081fd5b81516001600160401b038111156116ef578182fd5b6114038482850161140b565b60008151808452611713816020860160208601611a30565b601f01601f19169290920160200192915050565b60008151835260018060a01b036020830151166020840152604082015160c0604085015261175860c08501826116fb565b90506060830151848203606086015261177182826116fb565b9150506080830151608085015260a083015160a08501528091505092915050565b600082516117a4818460208701611a30565b9190910192915050565b6001600160a01b0391909116815260200190565b6001600160a01b039384168152919092166020820152604081019190915260600190565b6001600160a01b03929092168252602082015260400190565b6000602080830181845280855180835260408601915060408482028701019250838701855b8281101561185257603f19888603018452611840858351611727565b94509285019290850190600101611824565b5092979650505050505050565b90815260200190565b60008482526060602083015261188160608301856116fb565b828103604084015261189381856116fb565b9695505050505050565b6000602082526114c560208301846116fb565b6000606082526118c360608301866116fb565b82810360208401526118d581866116fb565b91505060018060a01b0383166040830152949350505050565b602080825260169082015275546869732075736572206973206e6f7420796f75727360501b604082015260600190565b6020808252601c908201527f496e697469616c697a6174696f6e206e6f7420636f6d706c6574656400000000604082015260600190565b6020808252818101527f496e697469616c697a6174696f6e20616c726561647920636f6d706c65746564604082015260600190565b6020808252602f908201527f43616e6e6f742068617665206d6f7265207468616e206f6e652075736572207760408201526e1a5d1a081bdb99481858d8dbdd5b9d608a1b606082015260800190565b6000602082526114c56020830184611727565b6040518181016001600160401b0381118282101715611a0757fe5b604052919050565b60006001600160401b03821115611a2257fe5b50601f01601f191660200190565b60005b83811015611a4b578181015183820152602001611a33565b83811115611a5a576000848401525b50505050565b6001600160a01b038116811461119857600080fdfe4f776e61626c653a206e6577206f776e657220697320746865207a65726f2061646472657373496e697469616c697a61626c653a20636f6e747261637420697320616c726561647920696e697469616c697a65644f776e61626c653a2063616c6c6572206973206e6f7420746865206f776e65728be0079c531659141344cd1fd0a4f28419497f9722a3daafe3b4186f6b6457e0a2646970667358221220e05856852b86f91667d4fc1d16cf9fbbc777c4c3161199a43894456f4334aa5e64736f6c63430007060033",
  "linkReferences": {},
  "deployedLinkReferences": {}
}