{
  "_format": "hh-sol-artifact-1",
  "contractName": "IobManager",
  "sourceName": "contracts/IobManager.sol",
  "abi": [
    {
      "anonymous": false,
      "inputs": [
        {
          "indexed": true,
          "internalType": "bytes32",
          "name": "spender",
          "type": "bytes32"
        },
        {
          "indexed": true,
          "internalType": "uint256",
          "name": "amount",
          "type": "uint256"
        }
      ],
      "name": "Approval",
      "type": "event"
    },
    {
      "anonymous": false,
      "inputs": [
        {
          "indexed": true,
          "internalType": "bytes32",
          "name": "recipient",
          "type": "bytes32"
        },
        {
          "indexed": true,
          "internalType": "uint256",
          "name": "amount",
          "type": "uint256"
        }
      ],
      "name": "Deposit",
      "type": "event"
    },
    {
      "anonymous": false,
      "inputs": [
        {
          "indexed": true,
          "internalType": "address",
          "name": "previousOwner",
          "type": "address"
        },
        {
          "indexed": true,
          "internalType": "address",
          "name": "newOwner",
          "type": "address"
        }
      ],
      "name": "OwnershipTransferred",
      "type": "event"
    },
    {
      "anonymous": false,
      "inputs": [
        {
          "indexed": true,
          "internalType": "bytes32",
          "name": "spender",
          "type": "bytes32"
        },
        {
          "indexed": true,
          "internalType": "bytes32",
          "name": "recipient",
          "type": "bytes32"
        },
        {
          "indexed": true,
          "internalType": "uint256",
          "name": "amount",
          "type": "uint256"
        }
      ],
      "name": "Transfer",
      "type": "event"
    },
    {
      "anonymous": false,
      "inputs": [
        {
          "indexed": true,
          "internalType": "bytes32",
          "name": "id",
          "type": "bytes32"
        },
        {
          "indexed": true,
          "internalType": "string",
          "name": "name",
          "type": "string"
        },
        {
          "indexed": false,
          "internalType": "string",
          "name": "password",
          "type": "string"
        }
      ],
      "name": "UserCreated",
      "type": "event"
    },
    {
      "anonymous": false,
      "inputs": [
        {
          "indexed": true,
          "internalType": "bytes32",
          "name": "id",
          "type": "bytes32"
        }
      ],
      "name": "UserDeleted",
      "type": "event"
    },
    {
      "anonymous": false,
      "inputs": [
        {
          "indexed": true,
          "internalType": "bytes32",
          "name": "id",
          "type": "bytes32"
        },
        {
          "indexed": true,
          "internalType": "string",
          "name": "newName",
          "type": "string"
        },
        {
          "indexed": false,
          "internalType": "string",
          "name": "newPassword",
          "type": "string"
        }
      ],
      "name": "UserEdited",
      "type": "event"
    },
    {
      "anonymous": false,
      "inputs": [
        {
          "indexed": true,
          "internalType": "bytes32",
          "name": "spender",
          "type": "bytes32"
        },
        {
          "indexed": true,
          "internalType": "uint256",
          "name": "amount",
          "type": "uint256"
        }
      ],
      "name": "Withdraw",
      "type": "event"
    },
    {
      "inputs": [
        {
          "internalType": "bytes32",
          "name": "_id",
          "type": "bytes32"
        }
      ],
      "name": "deleteUser",
      "outputs": [],
      "stateMutability": "nonpayable",
      "type": "function"
    },
    {
      "inputs": [
        {
          "internalType": "bytes32",
          "name": "_recipientId",
          "type": "bytes32"
        },
        {
          "internalType": "uint256",
          "name": "_amount",
          "type": "uint256"
        }
      ],
      "name": "deposit",
      "outputs": [],
      "stateMutability": "nonpayable",
      "type": "function"
    },
    {
      "inputs": [
        {
          "internalType": "bytes32",
          "name": "_id",
          "type": "bytes32"
        },
        {
          "internalType": "string",
          "name": "_newName",
          "type": "string"
        },
        {
          "internalType": "string",
          "name": "_newPass",
          "type": "string"
        }
      ],
      "name": "editUser",
      "outputs": [],
      "stateMutability": "nonpayable",
      "type": "function"
    },
    {
      "inputs": [],
      "name": "getAllUsers",
      "outputs": [
        {
          "components": [
            {
              "internalType": "bytes32",
              "name": "id",
              "type": "bytes32"
            },
            {
              "internalType": "address",
              "name": "owner",
              "type": "address"
            },
            {
              "internalType": "string",
              "name": "name",
              "type": "string"
            },
            {
              "internalType": "string",
              "name": "password",
              "type": "string"
            },
            {
              "internalType": "uint256",
              "name": "dateCreated",
              "type": "uint256"
            },
            {
              "internalType": "uint256",
              "name": "dateModified",
              "type": "uint256"
            }
          ],
          "internalType": "struct User[]",
          "name": "",
          "type": "tuple[]"
        }
      ],
      "stateMutability": "view",
      "type": "function"
    },
    {
      "inputs": [],
      "name": "getMyUser",
      "outputs": [
        {
          "components": [
            {
              "internalType": "bytes32",
              "name": "id",
              "type": "bytes32"
            },
            {
              "internalType": "address",
              "name": "owner",
              "type": "address"
            },
            {
              "internalType": "string",
              "name": "name",
              "type": "string"
            },
            {
              "internalType": "string",
              "name": "password",
              "type": "string"
            },
            {
              "internalType": "uint256",
              "name": "dateCreated",
              "type": "uint256"
            },
            {
              "internalType": "uint256",
              "name": "dateModified",
              "type": "uint256"
            }
          ],
          "internalType": "struct User",
          "name": "",
          "type": "tuple"
        }
      ],
      "stateMutability": "view",
      "type": "function"
    },
    {
      "inputs": [
        {
          "internalType": "bytes32",
          "name": "_id",
          "type": "bytes32"
        }
      ],
      "name": "getUser",
      "outputs": [
        {
          "components": [
            {
              "internalType": "bytes32",
              "name": "id",
              "type": "bytes32"
            },
            {
              "internalType": "address",
              "name": "owner",
              "type": "address"
            },
            {
              "internalType": "string",
              "name": "name",
              "type": "string"
            },
            {
              "internalType": "string",
              "name": "password",
              "type": "string"
            },
            {
              "internalType": "uint256",
              "name": "dateCreated",
              "type": "uint256"
            },
            {
              "internalType": "uint256",
              "name": "dateModified",
              "type": "uint256"
            }
          ],
          "internalType": "struct User",
          "name": "",
          "type": "tuple"
        }
      ],
      "stateMutability": "view",
      "type": "function"
    },
    {
      "inputs": [
        {
          "internalType": "string",
          "name": "_name",
          "type": "string"
        }
      ],
      "name": "getUserByName",
      "outputs": [
        {
          "components": [
            {
              "internalType": "bytes32",
              "name": "id",
              "type": "bytes32"
            },
            {
              "internalType": "address",
              "name": "owner",
              "type": "address"
            },
            {
              "internalType": "string",
              "name": "name",
              "type": "string"
            },
            {
              "internalType": "string",
              "name": "password",
              "type": "string"
            },
            {
              "internalType": "uint256",
              "name": "dateCreated",
              "type": "uint256"
            },
            {
              "internalType": "uint256",
              "name": "dateModified",
              "type": "uint256"
            }
          ],
          "internalType": "struct User",
          "name": "",
          "type": "tuple"
        }
      ],
      "stateMutability": "view",
      "type": "function"
    },
    {
      "inputs": [
        {
          "internalType": "address",
          "name": "_owner",
          "type": "address"
        }
      ],
      "name": "getUserByOwner",
      "outputs": [
        {
          "components": [
            {
              "internalType": "bytes32",
              "name": "id",
              "type": "bytes32"
            },
            {
              "internalType": "address",
              "name": "owner",
              "type": "address"
            },
            {
              "internalType": "string",
              "name": "name",
              "type": "string"
            },
            {
              "internalType": "string",
              "name": "password",
              "type": "string"
            },
            {
              "internalType": "uint256",
              "name": "dateCreated",
              "type": "uint256"
            },
            {
              "internalType": "uint256",
              "name": "dateModified",
              "type": "uint256"
            }
          ],
          "internalType": "struct User",
          "name": "",
          "type": "tuple"
        }
      ],
      "stateMutability": "view",
      "type": "function"
    },
    {
      "inputs": [],
      "name": "initToken",
      "outputs": [],
      "stateMutability": "nonpayable",
      "type": "function"
    },
    {
      "inputs": [
        {
          "internalType": "address",
          "name": "_users",
          "type": "address"
        }
      ],
      "name": "initialize",
      "outputs": [],
      "stateMutability": "nonpayable",
      "type": "function"
    },
    {
      "inputs": [
        {
          "internalType": "string",
          "name": "_name",
          "type": "string"
        },
        {
          "internalType": "string",
          "name": "_password",
          "type": "string"
        }
      ],
      "name": "newUser",
      "outputs": [],
      "stateMutability": "nonpayable",
      "type": "function"
    },
    {
      "inputs": [],
      "name": "owner",
      "outputs": [
        {
          "internalType": "address",
          "name": "",
          "type": "address"
        }
      ],
      "stateMutability": "view",
      "type": "function"
    },
    {
      "inputs": [],
      "name": "renounceOwnership",
      "outputs": [],
      "stateMutability": "nonpayable",
      "type": "function"
    },
    {
      "inputs": [
        {
          "internalType": "bytes32",
          "name": "_spenderId",
          "type": "bytes32"
        },
        {
          "internalType": "bytes32",
          "name": "_recipientId",
          "type": "bytes32"
        },
        {
          "internalType": "uint256",
          "name": "_amount",
          "type": "uint256"
        }
      ],
      "name": "transfer",
      "outputs": [],
      "stateMutability": "nonpayable",
      "type": "function"
    },
    {
      "inputs": [
        {
          "internalType": "address",
          "name": "newOwner",
          "type": "address"
        }
      ],
      "name": "transferOwnership",
      "outputs": [],
      "stateMutability": "nonpayable",
      "type": "function"
    },
    {
      "inputs": [
        {
          "internalType": "bytes32",
          "name": "_spenderId",
          "type": "bytes32"
        },
        {
          "internalType": "uint256",
          "name": "_amount",
          "type": "uint256"
        }
      ],
      "name": "withdraw",
      "outputs": [],
      "stateMutability": "nonpayable",
      "type": "function"
    }
  ],
  "bytecode": "0x608060405234801561001057600080fd5b50611c1f806100206000396000f3fe608060405234801561001057600080fd5b50600436106100e05760003560e01c80638df9bf10116100875780638df9bf101461018c578063ae9f75e31461019f578063c4d66de8146101b2578063daac7252146101c5578063e2842d79146101d8578063e66738cd146101ed578063ee7fb209146101f5578063f2fde38b146101fd576100e0565b8063040cf020146100e55780631de26e16146100fa5780631f34563c1461010d5780634bff5009146101205780635e5d4320146101495780636517579c1461015c578063715018a61461016f5780638da5cb5b14610177575b600080fd5b6100f86100f33660046116f6565b610210565b005b6100f86101083660046116f6565b6103ad565b6100f861011b366004611749565b610548565b61013361012e366004611717565b6106af565b6040516101409190611ab9565b60405180910390f35b6100f8610157366004611632565b61079b565b61013361016a366004611632565b610887565b6100f8610917565b61017f6109a7565b604051610140919061188e565b6100f861019a36600461168d565b6109b6565b6100f86101ad366004611662565b610aba565b6100f86101c0366004611557565b610cea565b6101336101d3366004611557565b610e0a565b6101e0610ead565b60405161014091906118df565b6100f8610f96565b610133610ff0565b6100f861020b366004611557565b6110a6565b61021861118d565b6033546001600160a01b03908116911614610268576040805162461bcd60e51b81526020600482018190526024820152600080516020611baa833981519152604482015290519081900360640190fd5b606654604051631945d5e760e21b81526000916001600160a01b031690636517579c9061029990869060040161193f565b60006040518083038186803b1580156102b157600080fd5b505afa1580156102c5573d6000803e3d6000fd5b505050506040513d6000823e601f3d908101601f191682016040526102ed91908101906117a9565b60655460208201516040516323b872dd60e01b81529293506001600160a01b03909116916323b872dd9161032791309087906004016118a2565b602060405180830381600087803b15801561034157600080fd5b505af1158015610355573d6000803e3d6000fd5b505050506040513d601f19601f820116820180604052508101906103799190611612565b5080516040518391907f4591ca0897d0d8e83f7153dfe0b2912125672084ab8d84be59ee13240a1778bc90600090a3505050565b6103b561118d565b6033546001600160a01b03908116911614610405576040805162461bcd60e51b81526020600482018190526024820152600080516020611baa833981519152604482015290519081900360640190fd5b606654604051631945d5e760e21b81526000916001600160a01b031690636517579c9061043690869060040161193f565b60006040518083038186803b15801561044e57600080fd5b505afa158015610462573d6000803e3d6000fd5b505050506040513d6000823e601f3d908101601f1916820160405261048a91908101906117a9565b606554602082015160405163a9059cbb60e01b81529293506001600160a01b039091169163a9059cbb916104c29186906004016118c6565b602060405180830381600087803b1580156104dc57600080fd5b505af11580156104f0573d6000803e3d6000fd5b505050506040513d601f19601f820116820180604052508101906105149190611612565b5080516040518391907f98e783c3864bbf744a057ef605a2a61701c3b62b5ed68b3745b99094497daf1f90600090a3505050565b60685460ff166105735760405162461bcd60e51b815260040161056a906119fe565b60405180910390fd5b600061057d61118d565b6001600160a01b038116600090815260676020526040902054909150156105b65760405162461bcd60e51b815260040161056a90611a6a565b60665460405163c905022d60e01b81526000916001600160a01b03169063c905022d906105eb90879087908790600401611990565b602060405180830381600087803b15801561060557600080fd5b505af1158015610619573d6000803e3d6000fd5b505050506040513d601f19601f8201168201806040525081019061063d919061164a565b6001600160a01b0383166000908152606760205260409081902082905551909150610669908590611872565b6040518091039020817fb18f53ae22ff56ddb27015ddd7d8b03adfadfd0fd8f3f35c4416b068f8c2a826856040516106a1919061197d565b60405180910390a350505050565b6106b76113d0565b6106bf61118d565b6033546001600160a01b0390811691161461070f576040805162461bcd60e51b81526020600482018190526024820152600080516020611baa833981519152604482015290519081900360640190fd5b606654604051634bff500960e01b81526001600160a01b0390911690634bff50099061073f90859060040161197d565b60006040518083038186803b15801561075757600080fd5b505afa15801561076b573d6000803e3d6000fd5b505050506040513d6000823e601f3d908101601f1916820160405261079391908101906117a9565b90505b919050565b60006107a561118d565b6001600160a01b03811660009081526067602052604090205490915082146107df5760405162461bcd60e51b815260040161056a906119ce565b6066546040516302f2ea1960e51b81526001600160a01b0390911690635e5d43209061080f90859060040161193f565b600060405180830381600087803b15801561082957600080fd5b505af115801561083d573d6000803e3d6000fd5b505050506001600160a01b0381166000908152606760205260408082208290555183917fc26eb30613e535870aeacfc24e58a8fb60e992f0d8bfe04ec9c98db26b53c5e591a25050565b61088f6113d0565b61089761118d565b6033546001600160a01b039081169116146108e7576040805162461bcd60e51b81526020600482018190526024820152600080516020611baa833981519152604482015290519081900360640190fd5b606654604051631945d5e760e21b81526001600160a01b0390911690636517579c9061073f90859060040161193f565b61091f61118d565b6033546001600160a01b0390811691161461096f576040805162461bcd60e51b81526020600482018190526024820152600080516020611baa833981519152604482015290519081900360640190fd5b6033546040516000916001600160a01b031690600080516020611bca833981519152908390a3603380546001600160a01b0319169055565b6033546001600160a01b031690565b606760006109c261118d565b6001600160a01b03166001600160a01b03168152602001908152602001600020548314610a015760405162461bcd60e51b815260040161056a906119ce565b6066546040516308df9bf160e41b81526001600160a01b0390911690638df9bf1090610a3590869086908690600401611948565b600060405180830381600087803b158015610a4f57600080fd5b505af1158015610a63573d6000803e3d6000fd5b5050505081604051610a759190611872565b6040518091039020837f1fe49f47881efe4970aa25a29f9592e1870b74f660ffc9c77d485830e530ffb683604051610aad919061197d565b60405180910390a3505050565b610ac261118d565b6033546001600160a01b03908116911614610b12576040805162461bcd60e51b81526020600482018190526024820152600080516020611baa833981519152604482015290519081900360640190fd5b606654604051631945d5e760e21b81526000916001600160a01b031690636517579c90610b4390879060040161193f565b60006040518083038186803b158015610b5b57600080fd5b505afa158015610b6f573d6000803e3d6000fd5b505050506040513d6000823e601f3d908101601f19168201604052610b9791908101906117a9565b606654604051631945d5e760e21b81529192506000916001600160a01b0390911690636517579c90610bcd90879060040161193f565b60006040518083038186803b158015610be557600080fd5b505afa158015610bf9573d6000803e3d6000fd5b505050506040513d6000823e601f3d908101601f19168201604052610c2191908101906117a9565b606554602080850151908301516040516323b872dd60e01b81529394506001600160a01b03909216926323b872dd92610c5f929188906004016118a2565b602060405180830381600087803b158015610c7957600080fd5b505af1158015610c8d573d6000803e3d6000fd5b505050506040513d601f19601f82011682018060405250810190610cb19190611612565b5080518251604051859291907fbc7a322f72742a0c810e1f76615f57ed3a5bbfcbd956d3d451b3158968faace990600090a45050505050565b600054610100900460ff1680610d035750610d03611191565b80610d11575060005460ff16155b610d4c5760405162461bcd60e51b815260040180806020018281038252602e815260200180611b7c602e913960400191505060405180910390fd5b600054610100900460ff16158015610d77576000805460ff1961ff0019909116610100171660011790555b610d7f611197565b606680546001600160a01b0319166001600160a01b03848116919091179182905560408051631f28915760e01b815290519290911691631f2891579160048082019260009290919082900301818387803b158015610ddc57600080fd5b505af1158015610df0573d6000803e3d6000fd5b505050508015610e06576000805461ff00191690555b5050565b610e126113d0565b610e1a61118d565b6033546001600160a01b03908116911614610e6a576040805162461bcd60e51b81526020600482018190526024820152600080516020611baa833981519152604482015290519081900360640190fd5b6066546001600160a01b0383811660009081526067602052604090819020549051631945d5e760e21b81529190921691636517579c9161073f919060040161193f565b6060610eb761118d565b6033546001600160a01b03908116911614610f07576040805162461bcd60e51b81526020600482018190526024820152600080516020611baa833981519152604482015290519081900360640190fd5b606660009054906101000a90046001600160a01b03166001600160a01b031663e2842d796040518163ffffffff1660e01b815260040160006040518083038186803b158015610f5557600080fd5b505afa158015610f69573d6000803e3d6000fd5b505050506040513d6000823e601f3d908101601f19168201604052610f91919081019061157a565b905090565b60685460ff1615610fb95760405162461bcd60e51b815260040161056a90611a35565b610fc161118d565b606580546001600160a01b0319166001600160a01b03929092169190911790556068805460ff19166001179055565b610ff86113d0565b6066546001600160a01b0316636517579c6067600061101561118d565b6001600160a01b03166001600160a01b03168152602001908152602001600020546040518263ffffffff1660e01b8152600401611052919061193f565b60006040518083038186803b15801561106a57600080fd5b505afa15801561107e573d6000803e3d6000fd5b505050506040513d6000823e601f3d908101601f19168201604052610f9191908101906117a9565b6110ae61118d565b6033546001600160a01b039081169116146110fe576040805162461bcd60e51b81526020600482018190526024820152600080516020611baa833981519152604482015290519081900360640190fd5b6001600160a01b0381166111435760405162461bcd60e51b8152600401808060200182810382526026815260200180611b566026913960400191505060405180910390fd5b6033546040516001600160a01b03808416921690600080516020611bca83398151915290600090a3603380546001600160a01b0319166001600160a01b0392909216919091179055565b3390565b303b1590565b600054610100900460ff16806111b057506111b0611191565b806111be575060005460ff16155b6111f95760405162461bcd60e51b815260040180806020018281038252602e815260200180611b7c602e913960400191505060405180910390fd5b600054610100900460ff16158015611224576000805460ff1961ff0019909116610100171660011790555b61122c611249565b6112346112e9565b8015611246576000805461ff00191690555b50565b600054610100900460ff16806112625750611262611191565b80611270575060005460ff16155b6112ab5760405162461bcd60e51b815260040180806020018281038252602e815260200180611b7c602e913960400191505060405180910390fd5b600054610100900460ff16158015611234576000805460ff1961ff0019909116610100171660011790558015611246576000805461ff001916905550565b600054610100900460ff16806113025750611302611191565b80611310575060005460ff16155b61134b5760405162461bcd60e51b815260040180806020018281038252602e815260200180611b7c602e913960400191505060405180910390fd5b600054610100900460ff16158015611376576000805460ff1961ff0019909116610100171660011790555b600061138061118d565b603380546001600160a01b0319166001600160a01b03831690811790915560405191925090600090600080516020611bca833981519152908290a3508015611246576000805461ff001916905550565b6040518060c001604052806000801916815260200160006001600160a01b03168152602001606081526020016060815260200160008152602001600081525090565b805161079681611b40565b600082601f83011261142d578081fd5b813561144061143b82611aef565b611acc565b818152846020838601011115611454578283fd5b816020850160208301379081016020019190915292915050565b600082601f83011261147e578081fd5b815161148c61143b82611aef565b8181528460208386010111156114a0578283fd5b6114b1826020830160208701611b10565b949350505050565b600060c082840312156114ca578081fd5b6114d460c0611acc565b9050815181526114e660208301611412565b602082015260408201516001600160401b038082111561150557600080fd5b6115118583860161146e565b6040840152606084015191508082111561152a57600080fd5b506115378482850161146e565b6060830152506080820151608082015260a082015160a082015292915050565b600060208284031215611568578081fd5b813561157381611b40565b9392505050565b6000602080838503121561158c578182fd5b82516001600160401b03808211156115a2578384fd5b818501915085601f8301126115b5578384fd5b8151818111156115c157fe5b6115ce8485830201611acc565b8181528481019250838501865b83811015611604576115f28a8884518901016114b9565b855293860193908601906001016115db565b509098975050505050505050565b600060208284031215611623578081fd5b81518015158114611573578182fd5b600060208284031215611643578081fd5b5035919050565b60006020828403121561165b578081fd5b5051919050565b600080600060608486031215611676578182fd5b505081359360208301359350604090920135919050565b6000806000606084860312156116a1578283fd5b8335925060208401356001600160401b03808211156116be578384fd5b6116ca8783880161141d565b935060408601359150808211156116df578283fd5b506116ec8682870161141d565b9150509250925092565b60008060408385031215611708578182fd5b50508035926020909101359150565b600060208284031215611728578081fd5b81356001600160401b0381111561173d578182fd5b6114b18482850161141d565b6000806040838503121561175b578182fd5b82356001600160401b0380821115611771578384fd5b61177d8683870161141d565b93506020850135915080821115611792578283fd5b5061179f8582860161141d565b9150509250929050565b6000602082840312156117ba578081fd5b81516001600160401b038111156117cf578182fd5b6114b1848285016114b9565b600081518084526117f3816020860160208601611b10565b601f01601f19169290920160200192915050565b60008151835260018060a01b036020830151166020840152604082015160c0604085015261183860c08501826117db565b90506060830151848203606086015261185182826117db565b9150506080830151608085015260a083015160a08501528091505092915050565b60008251611884818460208701611b10565b9190910192915050565b6001600160a01b0391909116815260200190565b6001600160a01b039384168152919092166020820152604081019190915260600190565b6001600160a01b03929092168252602082015260400190565b6000602080830181845280855180835260408601915060408482028701019250838701855b8281101561193257603f19888603018452611920858351611807565b94509285019290850190600101611904565b5092979650505050505050565b90815260200190565b60008482526060602083015261196160608301856117db565b828103604084015261197381856117db565b9695505050505050565b60006020825261157360208301846117db565b6000606082526119a360608301866117db565b82810360208401526119b581866117db565b91505060018060a01b0383166040830152949350505050565b602080825260169082015275546869732075736572206973206e6f7420796f75727360501b604082015260600190565b6020808252601c908201527f496e697469616c697a6174696f6e206e6f7420636f6d706c6574656400000000604082015260600190565b6020808252818101527f496e697469616c697a6174696f6e20616c726561647920636f6d706c65746564604082015260600190565b6020808252602f908201527f43616e6e6f742068617665206d6f7265207468616e206f6e652075736572207760408201526e1a5d1a081bdb99481858d8dbdd5b9d608a1b606082015260800190565b6000602082526115736020830184611807565b6040518181016001600160401b0381118282101715611ae757fe5b604052919050565b60006001600160401b03821115611b0257fe5b50601f01601f191660200190565b60005b83811015611b2b578181015183820152602001611b13565b83811115611b3a576000848401525b50505050565b6001600160a01b038116811461124657600080fdfe4f776e61626c653a206e6577206f776e657220697320746865207a65726f2061646472657373496e697469616c697a61626c653a20636f6e747261637420697320616c726561647920696e697469616c697a65644f776e61626c653a2063616c6c6572206973206e6f7420746865206f776e65728be0079c531659141344cd1fd0a4f28419497f9722a3daafe3b4186f6b6457e0a2646970667358221220aada22618691185a5f37b3910a15fc3d71e885ed217fae99bc7edf32474a6bcc64736f6c63430007060033",
  "linkReferences": {},
  "deployedLinkReferences": {}
}