{
  "_format": "hh-sol-artifact-1",
  "contractName": "Users",
  "sourceName": "contracts/Users.sol",
  "abi": [
    {
      "anonymous": false,
      "inputs": [
        {
          "indexed": true,
          "internalType": "address",
          "name": "previousOwner",
          "type": "address"
        },
        {
          "indexed": true,
          "internalType": "address",
          "name": "newOwner",
          "type": "address"
        }
      ],
      "name": "OwnershipTransferred",
      "type": "event"
    },
    {
      "inputs": [
        {
          "internalType": "bytes32",
          "name": "_id",
          "type": "bytes32"
        }
      ],
      "name": "deleteUser",
      "outputs": [],
      "stateMutability": "nonpayable",
      "type": "function"
    },
    {
      "inputs": [
        {
          "internalType": "bytes32",
          "name": "_id",
          "type": "bytes32"
        },
        {
          "internalType": "string",
          "name": "_newName",
          "type": "string"
        },
        {
          "internalType": "string",
          "name": "_newPass",
          "type": "string"
        }
      ],
      "name": "editUser",
      "outputs": [],
      "stateMutability": "nonpayable",
      "type": "function"
    },
    {
      "inputs": [],
      "name": "getAllUsers",
      "outputs": [
        {
          "components": [
            {
              "internalType": "bytes32",
              "name": "id",
              "type": "bytes32"
            },
            {
              "internalType": "address",
              "name": "owner",
              "type": "address"
            },
            {
              "internalType": "string",
              "name": "name",
              "type": "string"
            },
            {
              "internalType": "string",
              "name": "password",
              "type": "string"
            },
            {
              "internalType": "uint256",
              "name": "dateCreated",
              "type": "uint256"
            },
            {
              "internalType": "uint256",
              "name": "dateModified",
              "type": "uint256"
            }
          ],
          "internalType": "struct User[]",
          "name": "",
          "type": "tuple[]"
        }
      ],
      "stateMutability": "view",
      "type": "function"
    },
    {
      "inputs": [
        {
          "internalType": "bytes32",
          "name": "_id",
          "type": "bytes32"
        }
      ],
      "name": "getUser",
      "outputs": [
        {
          "components": [
            {
              "internalType": "bytes32",
              "name": "id",
              "type": "bytes32"
            },
            {
              "internalType": "address",
              "name": "owner",
              "type": "address"
            },
            {
              "internalType": "string",
              "name": "name",
              "type": "string"
            },
            {
              "internalType": "string",
              "name": "password",
              "type": "string"
            },
            {
              "internalType": "uint256",
              "name": "dateCreated",
              "type": "uint256"
            },
            {
              "internalType": "uint256",
              "name": "dateModified",
              "type": "uint256"
            }
          ],
          "internalType": "struct User",
          "name": "",
          "type": "tuple"
        }
      ],
      "stateMutability": "view",
      "type": "function"
    },
    {
      "inputs": [
        {
          "internalType": "string",
          "name": "_name",
          "type": "string"
        }
      ],
      "name": "getUserByName",
      "outputs": [
        {
          "components": [
            {
              "internalType": "bytes32",
              "name": "id",
              "type": "bytes32"
            },
            {
              "internalType": "address",
              "name": "owner",
              "type": "address"
            },
            {
              "internalType": "string",
              "name": "name",
              "type": "string"
            },
            {
              "internalType": "string",
              "name": "password",
              "type": "string"
            },
            {
              "internalType": "uint256",
              "name": "dateCreated",
              "type": "uint256"
            },
            {
              "internalType": "uint256",
              "name": "dateModified",
              "type": "uint256"
            }
          ],
          "internalType": "struct User",
          "name": "",
          "type": "tuple"
        }
      ],
      "stateMutability": "view",
      "type": "function"
    },
    {
      "inputs": [
        {
          "internalType": "bytes32[]",
          "name": "_ids",
          "type": "bytes32[]"
        }
      ],
      "name": "getUsers",
      "outputs": [
        {
          "components": [
            {
              "internalType": "bytes32",
              "name": "id",
              "type": "bytes32"
            },
            {
              "internalType": "address",
              "name": "owner",
              "type": "address"
            },
            {
              "internalType": "string",
              "name": "name",
              "type": "string"
            },
            {
              "internalType": "string",
              "name": "password",
              "type": "string"
            },
            {
              "internalType": "uint256",
              "name": "dateCreated",
              "type": "uint256"
            },
            {
              "internalType": "uint256",
              "name": "dateModified",
              "type": "uint256"
            }
          ],
          "internalType": "struct User[]",
          "name": "",
          "type": "tuple[]"
        }
      ],
      "stateMutability": "view",
      "type": "function"
    },
    {
      "inputs": [],
      "name": "initManager",
      "outputs": [],
      "stateMutability": "nonpayable",
      "type": "function"
    },
    {
      "inputs": [],
      "name": "initialize",
      "outputs": [],
      "stateMutability": "nonpayable",
      "type": "function"
    },
    {
      "inputs": [
        {
          "internalType": "string",
          "name": "_name",
          "type": "string"
        },
        {
          "internalType": "string",
          "name": "_password",
          "type": "string"
        },
        {
          "internalType": "address",
          "name": "_owner",
          "type": "address"
        }
      ],
      "name": "newUser",
      "outputs": [
        {
          "internalType": "bytes32",
          "name": "",
          "type": "bytes32"
        }
      ],
      "stateMutability": "nonpayable",
      "type": "function"
    },
    {
      "inputs": [],
      "name": "owner",
      "outputs": [
        {
          "internalType": "address",
          "name": "",
          "type": "address"
        }
      ],
      "stateMutability": "view",
      "type": "function"
    },
    {
      "inputs": [],
      "name": "renounceOwnership",
      "outputs": [],
      "stateMutability": "nonpayable",
      "type": "function"
    },
    {
      "inputs": [
        {
          "internalType": "address",
          "name": "newOwner",
          "type": "address"
        }
      ],
      "name": "transferOwnership",
      "outputs": [],
      "stateMutability": "nonpayable",
      "type": "function"
    }
  ],
  "bytecode": "0x608060405234801561001057600080fd5b50611e9d806100206000396000f3fe608060405234801561001057600080fd5b50600436106100b45760003560e01c80638129fc1c116100715780638129fc1c1461013a5780638da5cb5b146101425780638df9bf1014610157578063c905022d1461016a578063e2842d791461018a578063f2fde38b14610192576100b4565b80631f289157146100b9578063290a0b0b146100c35780634bff5009146100ec5780635e5d43201461010c5780636517579c1461011f578063715018a614610132575b600080fd5b6100c16101a5565b005b6100d66100d13660046116bb565b610211565b6040516100e39190611a27565b60405180910390f35b6100ff6100fa3660046117e2565b610326565b6040516100e39190611d36565b6100c161011a366004611761565b610385565b6100ff61012d366004611761565b61076f565b6100c1610992565b6100c1610a09565b61014a610a86565b6040516100e39190611a13565b6100c1610165366004611779565b610a95565b61017d61017836600461181c565b610e12565b6040516100e39190611a87565b6100d66110a4565b6100c16101a036600461169a565b611286565b606554600160a01b900460ff16156101d85760405162461bcd60e51b81526004016101cf90611c9d565b60405180910390fd5b6101e0611335565b6065805460ff60a01b196001600160a01b03939093166001600160a01b03199091161791909116600160a01b179055565b6065546060906001600160a01b0316331461023e5760405162461bcd60e51b81526004016101cf90611b7e565b600082516001600160401b0381111561026757634e487b7160e01b600052604160045260246000fd5b6040519080825280602002602001820160405280156102a057816020015b61028d611506565b8152602001906001900390816102855790505b50905060005b835181101561031d576102df8482815181106102d257634e487b7160e01b600052603260045260246000fd5b602002602001015161076f565b8282815181106102ff57634e487b7160e01b600052603260045260246000fd5b6020026020010181905250808061031590611e00565b9150506102a6565b5090505b919050565b61032e611506565b6065546001600160a01b031633146103585760405162461bcd60e51b81526004016101cf90611b7e565b61037f60698360405161036b9190611923565b90815260200160405180910390205461076f565b92915050565b6065546001600160a01b031633146103af5760405162461bcd60e51b81526004016101cf90611b7e565b60008181526068602052604090205460ff166103dd5760405162461bcd60e51b81526004016101cf90611cd2565b6000818152606760205260408120546066805460699290811061041057634e487b7160e01b600052603260045260246000fd5b906000526020600020906006020160020160405161042e9190611978565b90815260405190819003602001902055606680546000919061045290600190611d7e565b8154811061047057634e487b7160e01b600052603260045260246000fd5b90600052602060002090600602016040518060c0016040529081600082015481526020016001820160009054906101000a90046001600160a01b03166001600160a01b03166001600160a01b031681526020016002820180546104d290611dc5565b80601f01602080910402602001604051908101604052809291908181526020018280546104fe90611dc5565b801561054b5780601f106105205761010080835404028352916020019161054b565b820191906000526020600020905b81548152906001019060200180831161052e57829003601f168201915b5050505050815260200160038201805461056490611dc5565b80601f016020809104026020016040519081016040528092919081815260200182805461059090611dc5565b80156105dd5780601f106105b2576101008083540402835291602001916105dd565b820191906000526020600020905b8154815290600101906020018083116105c057829003601f168201915b5050505050815260200160048201548152602001600582015481525050905080606660676000858152602001908152602001600020548154811061063157634e487b7160e01b600052603260045260246000fd5b6000918252602091829020835160069290920201908155828201516001820180546001600160a01b0319166001600160a01b0390921691909117905560408301518051919261068892600285019290910190611548565b50606082015180516106a4916003840191602090910190611548565b506080820151600482015560a090910151600590910155600082815260676020526040808220548351835291205560668054806106f157634e487b7160e01b600052603160045260246000fd5b6000828152602081206006600019909301928302018181556001810180546001600160a01b03191690559061072960028301826115cc565b6107376003830160006115cc565b50600060048201819055600590910181905591559182525060676020908152604080832083905560689091529020805460ff19169055565b610777611506565b6065546001600160a01b031633146107a15760405162461bcd60e51b81526004016101cf90611b7e565b60008281526068602052604090205460ff166107cf5760405162461bcd60e51b81526004016101cf90611c38565b60008281526067602052604090205460668054909190811061080157634e487b7160e01b600052603260045260246000fd5b90600052602060002090600602016040518060c0016040529081600082015481526020016001820160009054906101000a90046001600160a01b03166001600160a01b03166001600160a01b0316815260200160028201805461086390611dc5565b80601f016020809104026020016040519081016040528092919081815260200182805461088f90611dc5565b80156108dc5780601f106108b1576101008083540402835291602001916108dc565b820191906000526020600020905b8154815290600101906020018083116108bf57829003601f168201915b505050505081526020016003820180546108f590611dc5565b80601f016020809104026020016040519081016040528092919081815260200182805461092190611dc5565b801561096e5780601f106109435761010080835404028352916020019161096e565b820191906000526020600020905b81548152906001019060200180831161095157829003601f168201915b50505050508152602001600482015481526020016005820154815250509050919050565b61099a611335565b6001600160a01b03166109ab610a86565b6001600160a01b0316146109d15760405162461bcd60e51b81526004016101cf90611c03565b6033546040516000916001600160a01b031690600080516020611e48833981519152908390a3603380546001600160a01b0319169055565b600054610100900460ff1680610a22575060005460ff16155b610a3e5760405162461bcd60e51b81526004016101cf90611bb5565b600054610100900460ff16158015610a69576000805460ff1961ff0019909116610100171660011790555b610a71611339565b8015610a83576000805461ff00191690555b50565b6033546001600160a01b031690565b81816014825110610ab85760405162461bcd60e51b81526004016101cf90611b2f565b600f815111610ad95760405162461bcd60e51b81526004016101cf90611a90565b6065546001600160a01b03163314610b035760405162461bcd60e51b81526004016101cf90611b7e565b60008581526068602052604090205460ff16610b315760405162461bcd60e51b81526004016101cf90611cd2565b600085815260676020526040812054606680549091908110610b6357634e487b7160e01b600052603260045260246000fd5b90600052602060002090600602016040518060c0016040529081600082015481526020016001820160009054906101000a90046001600160a01b03166001600160a01b03166001600160a01b03168152602001600282018054610bc590611dc5565b80601f0160208091040260200160405190810160405280929190818152602001828054610bf190611dc5565b8015610c3e5780601f10610c1357610100808354040283529160200191610c3e565b820191906000526020600020905b815481529060010190602001808311610c2157829003601f168201915b50505050508152602001600382018054610c5790611dc5565b80601f0160208091040260200160405190810160405280929190818152602001828054610c8390611dc5565b8015610cd05780601f10610ca557610100808354040283529160200191610cd0565b820191906000526020600020905b815481529060010190602001808311610cb357829003601f168201915b505050505081526020016004820154815260200160058201548152505090506000801b60698260400151604051610d079190611923565b908152604080516020928190038301902092909255828201879052606083018690524260a0840152600088815260679091522054606680548392908110610d5e57634e487b7160e01b600052603260045260246000fd5b6000918252602091829020835160069290920201908155828201516001820180546001600160a01b0319166001600160a01b03909216919091179055604083015180519192610db592600285019290910190611548565b5060608201518051610dd1916003840191602090910190611548565b506080820151816004015560a0820151816005015590505085606986604051610dfa9190611923565b90815260405190819003602001902055505050505050565b600083836014825110610e375760405162461bcd60e51b81526004016101cf90611b2f565b600f815111610e585760405162461bcd60e51b81526004016101cf90611a90565b6065546001600160a01b03163314610e825760405162461bcd60e51b81526004016101cf90611b7e565b6000801b606987604051610e969190611923565b90815260200160405180910390205414610ec25760405162461bcd60e51b81526004016101cf90611d04565b60004290506000610ef5888332604051602001610ee19392919061193f565b6040516020818303038152906040526113a9565b60008181526068602052604090205490915060ff1615610f275760405162461bcd60e51b81526004016101cf90611c6d565b610f2f611506565b8181526001600160a01b038781166020808401918252604084018c8152606085018c90526080850187905260a085018790526066805460018101825560009190915285517f46501879b8ca8525e8c2fd519e2fbfcfa2ebea26501294aa02cbfcfb12e94354600690920291820190815593517f46501879b8ca8525e8c2fd519e2fbfcfa2ebea26501294aa02cbfcfb12e94355820180546001600160a01b0319169190961617909455518051859461100d937f46501879b8ca8525e8c2fd519e2fbfcfa2ebea26501294aa02cbfcfb12e94356909101920190611548565b5060608201518051611029916003840191602090910190611548565b506080820151600482015560a09091015160059091015560665461104f90600190611d7e565b60008381526067602090815260408083209390935560689052819020805460ff19166001179055518290606990611087908c90611923565b908152604051908190036020019020555093505050509392505050565b6065546060906001600160a01b031633146110d15760405162461bcd60e51b81526004016101cf90611b7e565b6066805480602002602001604051908101604052809291908181526020016000905b8282101561127d5760008481526020908190206040805160c081018252600686029092018054835260018101546001600160a01b0316938301939093526002830180549293929184019161114690611dc5565b80601f016020809104026020016040519081016040528092919081815260200182805461117290611dc5565b80156111bf5780601f10611194576101008083540402835291602001916111bf565b820191906000526020600020905b8154815290600101906020018083116111a257829003601f168201915b505050505081526020016003820180546111d890611dc5565b80601f016020809104026020016040519081016040528092919081815260200182805461120490611dc5565b80156112515780601f1061122657610100808354040283529160200191611251565b820191906000526020600020905b81548152906001019060200180831161123457829003601f168201915b5050505050815260200160048201548152602001600582015481525050815260200190600101906110f3565b50505050905090565b61128e611335565b6001600160a01b031661129f610a86565b6001600160a01b0316146112c55760405162461bcd60e51b81526004016101cf90611c03565b6001600160a01b0381166112eb5760405162461bcd60e51b81526004016101cf90611ae9565b6033546040516001600160a01b03808416921690600080516020611e4883398151915290600090a3603380546001600160a01b0319166001600160a01b0392909216919091179055565b3390565b600054610100900460ff1680611352575060005460ff16155b61136e5760405162461bcd60e51b81526004016101cf90611bb5565b600054610100900460ff16158015611399576000805460ff1961ff0019909116610100171660011790555b6113a16113d9565b610a7161144c565b6000816040516020016113bc9190611923565b604051602081830303815290604052805190602001209050919050565b600054610100900460ff16806113f2575060005460ff16155b61140e5760405162461bcd60e51b81526004016101cf90611bb5565b600054610100900460ff16158015610a71576000805460ff1961ff0019909116610100171660011790558015610a83576000805461ff001916905550565b600054610100900460ff1680611465575060005460ff16155b6114815760405162461bcd60e51b81526004016101cf90611bb5565b600054610100900460ff161580156114ac576000805460ff1961ff0019909116610100171660011790555b60006114b6611335565b603380546001600160a01b0319166001600160a01b03831690811790915560405191925090600090600080516020611e48833981519152908290a3508015610a83576000805461ff001916905550565b6040518060c001604052806000801916815260200160006001600160a01b03168152602001606081526020016060815260200160008152602001600081525090565b82805461155490611dc5565b90600052602060002090601f01602090048101928261157657600085556115bc565b82601f1061158f57805160ff19168380011785556115bc565b828001600101855582156115bc579182015b828111156115bc5782518255916020019190600101906115a1565b506115c8929150611604565b5090565b5080546115d890611dc5565b6000825580601f106115ea5750610a83565b601f016020900490600052602060002090810190610a8391905b5b808211156115c85760008155600101611605565b80356001600160a01b038116811461032157600080fd5b600082601f830112611640578081fd5b81356001600160401b0381111561165957611659611e31565b61166c601f8201601f1916602001611d49565b818152846020838601011115611680578283fd5b816020850160208301379081016020019190915292915050565b6000602082840312156116ab578081fd5b6116b482611619565b9392505050565b600060208083850312156116cd578182fd5b82356001600160401b03808211156116e3578384fd5b818501915085601f8301126116f6578384fd5b81358181111561170857611708611e31565b8381029150611718848301611d49565b8181528481019084860184860187018a1015611732578788fd5b8795505b83861015611754578035835260019590950194918601918601611736565b5098975050505050505050565b600060208284031215611772578081fd5b5035919050565b60008060006060848603121561178d578182fd5b8335925060208401356001600160401b03808211156117aa578384fd5b6117b687838801611630565b935060408601359150808211156117cb578283fd5b506117d886828701611630565b9150509250925092565b6000602082840312156117f3578081fd5b81356001600160401b03811115611808578182fd5b61181484828501611630565b949350505050565b600080600060608486031215611830578283fd5b83356001600160401b0380821115611846578485fd5b61185287838801611630565b94506020860135915080821115611867578384fd5b5061187486828701611630565b92505061188360408501611619565b90509250925092565b600081518084526118a4816020860160208601611d95565b601f01601f19169290920160200192915050565b60008151835260018060a01b036020830151166020840152604082015160c060408501526118e960c085018261188c565b905060608301518482036060860152611902828261188c565b9150506080830151608085015260a083015160a08501528091505092915050565b60008251611935818460208701611d95565b9190910192915050565b60008451611951818460208901611d95565b919091019283525060601b6bffffffffffffffffffffffff19166020820152603401919050565b815460009081906002810460018083168061199457607f831692505b60208084108214156119b457634e487b7160e01b87526022600452602487fd5b8180156119c857600181146119d957611a05565b60ff19861689528489019650611a05565b6119e28a611d72565b885b868110156119fd5781548b8201529085019083016119e4565b505084890196505b509498975050505050505050565b6001600160a01b0391909116815260200190565b6000602080830181845280855180835260408601915060408482028701019250838701855b82811015611a7a57603f19888603018452611a688583516118b8565b94509285019290850190600101611a4c565b5092979650505050505050565b90815260200190565b60208082526039908201527f50617373776f7264206c656e677468206d757374206265206d6f7265207468616040820152786e20313520636861726163746572732028656e63727970742960381b606082015260800190565b60208082526026908201527f4f776e61626c653a206e6577206f776e657220697320746865207a65726f206160408201526564647265737360d01b606082015260800190565b6020808252602f908201527f557365726e616d65206c656e677468206d757374206265206c6573732074686160408201526e6e203230206368617261637465727360881b606082015260800190565b6020808252601f908201527f63616e206f6e6c792062652063616c6c65642066726f6d206d616e6167657200604082015260600190565b6020808252602e908201527f496e697469616c697a61626c653a20636f6e747261637420697320616c72656160408201526d191e481a5b9a5d1a585b1a5e995960921b606082015260800190565b6020808252818101527f4f776e61626c653a2063616c6c6572206973206e6f7420746865206f776e6572604082015260600190565b6020808252818101527f55736572206e6f742073746f72656420796574206f72206e6f7420666f756e64604082015260600190565b6020808252601690820152755573657220494420616c726561647920696e2075736560501b604082015260600190565b6020808252818101527f496e697469616c697a6174696f6e20616c726561647920636f6d706c65746564604082015260600190565b602080825260189082015277151a1a5cc81d5cd95c88191bd95cc81b9bdd08195e1a5cdd60421b604082015260600190565b60208082526018908201527755736572206e616d6520616c726561647920696e2075736560401b604082015260600190565b6000602082526116b460208301846118b8565b6040518181016001600160401b0381118282101715611d6a57611d6a611e31565b604052919050565b60009081526020902090565b600082821015611d9057611d90611e1b565b500390565b60005b83811015611db0578181015183820152602001611d98565b83811115611dbf576000848401525b50505050565b600281046001821680611dd957607f821691505b60208210811415611dfa57634e487b7160e01b600052602260045260246000fd5b50919050565b6000600019821415611e1457611e14611e1b565b5060010190565b634e487b7160e01b600052601160045260246000fd5b634e487b7160e01b600052604160045260246000fdfe8be0079c531659141344cd1fd0a4f28419497f9722a3daafe3b4186f6b6457e0a2646970667358221220413e02c5b479f025c1533dfff552a567705dcb0ef05d4acfa90a0e80f3e5ab3a64736f6c63430008000033",
  "linkReferences": {},
  "deployedLinkReferences": {}
}