{
  "_format": "hh-sol-artifact-1",
  "contractName": "ExampleManager",
  "sourceName": "contracts/ExampleManager.sol",
  "abi": [
    {
      "anonymous": false,
      "inputs": [
        {
          "indexed": true,
          "internalType": "bytes32",
          "name": "spender",
          "type": "bytes32"
        },
        {
          "indexed": true,
          "internalType": "uint256",
          "name": "amount",
          "type": "uint256"
        }
      ],
      "name": "Approval",
      "type": "event"
    },
    {
      "anonymous": false,
      "inputs": [
        {
          "indexed": true,
          "internalType": "bytes32",
          "name": "recipient",
          "type": "bytes32"
        },
        {
          "indexed": true,
          "internalType": "uint256",
          "name": "amount",
          "type": "uint256"
        }
      ],
      "name": "Deposit",
      "type": "event"
    },
    {
      "anonymous": false,
      "inputs": [
        {
          "indexed": true,
          "internalType": "address",
          "name": "previousOwner",
          "type": "address"
        },
        {
          "indexed": true,
          "internalType": "address",
          "name": "newOwner",
          "type": "address"
        }
      ],
      "name": "OwnershipTransferred",
      "type": "event"
    },
    {
      "anonymous": false,
      "inputs": [
        {
          "indexed": true,
          "internalType": "bytes32",
          "name": "spender",
          "type": "bytes32"
        },
        {
          "indexed": true,
          "internalType": "bytes32",
          "name": "recipient",
          "type": "bytes32"
        },
        {
          "indexed": true,
          "internalType": "uint256",
          "name": "amount",
          "type": "uint256"
        }
      ],
      "name": "Transfer",
      "type": "event"
    },
    {
      "anonymous": false,
      "inputs": [
        {
          "indexed": true,
          "internalType": "bytes32",
          "name": "id",
          "type": "bytes32"
        },
        {
          "indexed": true,
          "internalType": "string",
          "name": "name",
          "type": "string"
        },
        {
          "indexed": false,
          "internalType": "string",
          "name": "password",
          "type": "string"
        }
      ],
      "name": "UserCreated",
      "type": "event"
    },
    {
      "anonymous": false,
      "inputs": [
        {
          "indexed": true,
          "internalType": "bytes32",
          "name": "id",
          "type": "bytes32"
        }
      ],
      "name": "UserDeleted",
      "type": "event"
    },
    {
      "anonymous": false,
      "inputs": [
        {
          "indexed": true,
          "internalType": "bytes32",
          "name": "id",
          "type": "bytes32"
        },
        {
          "indexed": true,
          "internalType": "string",
          "name": "newName",
          "type": "string"
        },
        {
          "indexed": false,
          "internalType": "string",
          "name": "newPassword",
          "type": "string"
        }
      ],
      "name": "UserEdited",
      "type": "event"
    },
    {
      "anonymous": false,
      "inputs": [
        {
          "indexed": true,
          "internalType": "bytes32",
          "name": "spender",
          "type": "bytes32"
        },
        {
          "indexed": true,
          "internalType": "uint256",
          "name": "amount",
          "type": "uint256"
        }
      ],
      "name": "Withdraw",
      "type": "event"
    },
    {
      "inputs": [
        {
          "internalType": "bytes32",
          "name": "_id",
          "type": "bytes32"
        }
      ],
      "name": "deleteUser",
      "outputs": [],
      "stateMutability": "nonpayable",
      "type": "function"
    },
    {
      "inputs": [
        {
          "internalType": "bytes32",
          "name": "_recipientId",
          "type": "bytes32"
        },
        {
          "internalType": "uint256",
          "name": "_amount",
          "type": "uint256"
        }
      ],
      "name": "deposit",
      "outputs": [],
      "stateMutability": "nonpayable",
      "type": "function"
    },
    {
      "inputs": [
        {
          "internalType": "bytes32",
          "name": "_id",
          "type": "bytes32"
        },
        {
          "internalType": "string",
          "name": "_newName",
          "type": "string"
        },
        {
          "internalType": "string",
          "name": "_newPass",
          "type": "string"
        }
      ],
      "name": "editUser",
      "outputs": [],
      "stateMutability": "nonpayable",
      "type": "function"
    },
    {
      "inputs": [],
      "name": "getAllUsers",
      "outputs": [
        {
          "components": [
            {
              "internalType": "bytes32",
              "name": "id",
              "type": "bytes32"
            },
            {
              "internalType": "address",
              "name": "owner",
              "type": "address"
            },
            {
              "internalType": "string",
              "name": "name",
              "type": "string"
            },
            {
              "internalType": "string",
              "name": "password",
              "type": "string"
            },
            {
              "internalType": "uint256",
              "name": "dateCreated",
              "type": "uint256"
            },
            {
              "internalType": "uint256",
              "name": "dateModified",
              "type": "uint256"
            }
          ],
          "internalType": "struct User[]",
          "name": "",
          "type": "tuple[]"
        }
      ],
      "stateMutability": "view",
      "type": "function"
    },
    {
      "inputs": [],
      "name": "getMyUser",
      "outputs": [
        {
          "components": [
            {
              "internalType": "bytes32",
              "name": "id",
              "type": "bytes32"
            },
            {
              "internalType": "address",
              "name": "owner",
              "type": "address"
            },
            {
              "internalType": "string",
              "name": "name",
              "type": "string"
            },
            {
              "internalType": "string",
              "name": "password",
              "type": "string"
            },
            {
              "internalType": "uint256",
              "name": "dateCreated",
              "type": "uint256"
            },
            {
              "internalType": "uint256",
              "name": "dateModified",
              "type": "uint256"
            }
          ],
          "internalType": "struct User",
          "name": "",
          "type": "tuple"
        }
      ],
      "stateMutability": "view",
      "type": "function"
    },
    {
      "inputs": [
        {
          "internalType": "bytes32",
          "name": "_id",
          "type": "bytes32"
        }
      ],
      "name": "getUser",
      "outputs": [
        {
          "components": [
            {
              "internalType": "bytes32",
              "name": "id",
              "type": "bytes32"
            },
            {
              "internalType": "address",
              "name": "owner",
              "type": "address"
            },
            {
              "internalType": "string",
              "name": "name",
              "type": "string"
            },
            {
              "internalType": "string",
              "name": "password",
              "type": "string"
            },
            {
              "internalType": "uint256",
              "name": "dateCreated",
              "type": "uint256"
            },
            {
              "internalType": "uint256",
              "name": "dateModified",
              "type": "uint256"
            }
          ],
          "internalType": "struct User",
          "name": "",
          "type": "tuple"
        }
      ],
      "stateMutability": "view",
      "type": "function"
    },
    {
      "inputs": [
        {
          "internalType": "string",
          "name": "_name",
          "type": "string"
        }
      ],
      "name": "getUserByName",
      "outputs": [
        {
          "components": [
            {
              "internalType": "bytes32",
              "name": "id",
              "type": "bytes32"
            },
            {
              "internalType": "address",
              "name": "owner",
              "type": "address"
            },
            {
              "internalType": "string",
              "name": "name",
              "type": "string"
            },
            {
              "internalType": "string",
              "name": "password",
              "type": "string"
            },
            {
              "internalType": "uint256",
              "name": "dateCreated",
              "type": "uint256"
            },
            {
              "internalType": "uint256",
              "name": "dateModified",
              "type": "uint256"
            }
          ],
          "internalType": "struct User",
          "name": "",
          "type": "tuple"
        }
      ],
      "stateMutability": "view",
      "type": "function"
    },
    {
      "inputs": [
        {
          "internalType": "address",
          "name": "_owner",
          "type": "address"
        }
      ],
      "name": "getUserByOwner",
      "outputs": [
        {
          "components": [
            {
              "internalType": "bytes32",
              "name": "id",
              "type": "bytes32"
            },
            {
              "internalType": "address",
              "name": "owner",
              "type": "address"
            },
            {
              "internalType": "string",
              "name": "name",
              "type": "string"
            },
            {
              "internalType": "string",
              "name": "password",
              "type": "string"
            },
            {
              "internalType": "uint256",
              "name": "dateCreated",
              "type": "uint256"
            },
            {
              "internalType": "uint256",
              "name": "dateModified",
              "type": "uint256"
            }
          ],
          "internalType": "struct User",
          "name": "",
          "type": "tuple"
        }
      ],
      "stateMutability": "view",
      "type": "function"
    },
    {
      "inputs": [],
      "name": "initToken",
      "outputs": [],
      "stateMutability": "nonpayable",
      "type": "function"
    },
    {
      "inputs": [
        {
          "internalType": "address",
          "name": "_users",
          "type": "address"
        }
      ],
      "name": "initialize",
      "outputs": [],
      "stateMutability": "nonpayable",
      "type": "function"
    },
    {
      "inputs": [
        {
          "internalType": "string",
          "name": "_name",
          "type": "string"
        },
        {
          "internalType": "string",
          "name": "_password",
          "type": "string"
        }
      ],
      "name": "newUser",
      "outputs": [],
      "stateMutability": "nonpayable",
      "type": "function"
    },
    {
      "inputs": [],
      "name": "owner",
      "outputs": [
        {
          "internalType": "address",
          "name": "",
          "type": "address"
        }
      ],
      "stateMutability": "view",
      "type": "function"
    },
    {
      "inputs": [],
      "name": "renounceOwnership",
      "outputs": [],
      "stateMutability": "nonpayable",
      "type": "function"
    },
    {
      "inputs": [
        {
          "internalType": "bytes32",
          "name": "_spenderId",
          "type": "bytes32"
        },
        {
          "internalType": "bytes32",
          "name": "_recipientId",
          "type": "bytes32"
        },
        {
          "internalType": "uint256",
          "name": "_amount",
          "type": "uint256"
        }
      ],
      "name": "transfer",
      "outputs": [],
      "stateMutability": "nonpayable",
      "type": "function"
    },
    {
      "inputs": [
        {
          "internalType": "address",
          "name": "newOwner",
          "type": "address"
        }
      ],
      "name": "transferOwnership",
      "outputs": [],
      "stateMutability": "nonpayable",
      "type": "function"
    },
    {
      "inputs": [
        {
          "internalType": "bytes32",
          "name": "_spenderId",
          "type": "bytes32"
        },
        {
          "internalType": "uint256",
          "name": "_amount",
          "type": "uint256"
        }
      ],
      "name": "withdraw",
      "outputs": [],
      "stateMutability": "nonpayable",
      "type": "function"
    }
  ],
  "bytecode": "0x608060405234801561001057600080fd5b50611ae2806100206000396000f3fe608060405234801561001057600080fd5b50600436106100e05760003560e01c80638df9bf10116100875780638df9bf101461018c578063ae9f75e31461019f578063c4d66de8146101b2578063daac7252146101c5578063e2842d79146101d8578063e66738cd146101ed578063ee7fb209146101f5578063f2fde38b146101fd576100e0565b8063040cf020146100e55780631de26e16146100fa5780631f34563c1461010d5780634bff5009146101205780635e5d4320146101495780636517579c1461015c578063715018a61461016f5780638da5cb5b14610177575b600080fd5b6100f86100f3366004611542565b610210565b005b6100f8610108366004611542565b61039d565b6100f861011b366004611595565b61051f565b61013361012e366004611563565b61067d565b60405161014091906119ce565b60405180910390f35b6100f861015736600461147e565b610750565b61013361016a36600461147e565b61083c565b6100f86108b3565b61017f61092a565b60405161014091906116da565b6100f861019a3660046114d9565b610939565b6100f86101ad3660046114ae565b610a3d565b6100f86101c036600461139d565b610c54565b6101336101d336600461139d565b610d47565b6101e0610dd1565b604051610140919061172b565b6100f8610ea1565b610133610efb565b6100f861020b36600461139d565b610fb1565b610218611060565b6001600160a01b031661022961092a565b6001600160a01b0316146102585760405162461bcd60e51b815260040161024f90611915565b60405180910390fd5b606654604051631945d5e760e21b81526000916001600160a01b031690636517579c9061028990869060040161178b565b60006040518083038186803b1580156102a157600080fd5b505afa1580156102b5573d6000803e3d6000fd5b505050506040513d6000823e601f3d908101601f191682016040526102dd91908101906115f5565b60655460208201516040516323b872dd60e01b81529293506001600160a01b03909116916323b872dd9161031791309087906004016116ee565b602060405180830381600087803b15801561033157600080fd5b505af1158015610345573d6000803e3d6000fd5b505050506040513d601f19601f82011682018060405250810190610369919061145e565b5080516040518391907f4591ca0897d0d8e83f7153dfe0b2912125672084ab8d84be59ee13240a1778bc90600090a3505050565b6103a5611060565b6001600160a01b03166103b661092a565b6001600160a01b0316146103dc5760405162461bcd60e51b815260040161024f90611915565b606654604051631945d5e760e21b81526000916001600160a01b031690636517579c9061040d90869060040161178b565b60006040518083038186803b15801561042557600080fd5b505afa158015610439573d6000803e3d6000fd5b505050506040513d6000823e601f3d908101601f1916820160405261046191908101906115f5565b606554602082015160405163a9059cbb60e01b81529293506001600160a01b039091169163a9059cbb91610499918690600401611712565b602060405180830381600087803b1580156104b357600080fd5b505af11580156104c7573d6000803e3d6000fd5b505050506040513d601f19601f820116820180604052508101906104eb919061145e565b5080516040518391907f98e783c3864bbf744a057ef605a2a61701c3b62b5ed68b3745b99094497daf1f90600090a3505050565b60685460ff166105415760405162461bcd60e51b815260040161024f90611890565b600061054b611060565b6001600160a01b038116600090815260676020526040902054909150156105845760405162461bcd60e51b815260040161024f9061197f565b60665460405163c905022d60e01b81526000916001600160a01b03169063c905022d906105b9908790879087906004016117dc565b602060405180830381600087803b1580156105d357600080fd5b505af11580156105e7573d6000803e3d6000fd5b505050506040513d601f19601f8201168201806040525081019061060b9190611496565b6001600160a01b03831660009081526067602052604090819020829055519091506106379085906116be565b6040518091039020817fb18f53ae22ff56ddb27015ddd7d8b03adfadfd0fd8f3f35c4416b068f8c2a8268560405161066f91906117c9565b60405180910390a350505050565b610685611216565b61068d611060565b6001600160a01b031661069e61092a565b6001600160a01b0316146106c45760405162461bcd60e51b815260040161024f90611915565b606654604051634bff500960e01b81526001600160a01b0390911690634bff5009906106f49085906004016117c9565b60006040518083038186803b15801561070c57600080fd5b505afa158015610720573d6000803e3d6000fd5b505050506040513d6000823e601f3d908101601f1916820160405261074891908101906115f5565b90505b919050565b600061075a611060565b6001600160a01b03811660009081526067602052604090205490915082146107945760405162461bcd60e51b815260040161024f90611860565b6066546040516302f2ea1960e51b81526001600160a01b0390911690635e5d4320906107c490859060040161178b565b600060405180830381600087803b1580156107de57600080fd5b505af11580156107f2573d6000803e3d6000fd5b505050506001600160a01b0381166000908152606760205260408082208290555183917fc26eb30613e535870aeacfc24e58a8fb60e992f0d8bfe04ec9c98db26b53c5e591a25050565b610844611216565b61084c611060565b6001600160a01b031661085d61092a565b6001600160a01b0316146108835760405162461bcd60e51b815260040161024f90611915565b606654604051631945d5e760e21b81526001600160a01b0390911690636517579c906106f490859060040161178b565b6108bb611060565b6001600160a01b03166108cc61092a565b6001600160a01b0316146108f25760405162461bcd60e51b815260040161024f90611915565b6033546040516000916001600160a01b031690600080516020611a8d833981519152908390a3603380546001600160a01b0319169055565b6033546001600160a01b031690565b60676000610945611060565b6001600160a01b03166001600160a01b031681526020019081526020016000205483146109845760405162461bcd60e51b815260040161024f90611860565b6066546040516308df9bf160e41b81526001600160a01b0390911690638df9bf10906109b890869086908690600401611794565b600060405180830381600087803b1580156109d257600080fd5b505af11580156109e6573d6000803e3d6000fd5b50505050816040516109f891906116be565b6040518091039020837f1fe49f47881efe4970aa25a29f9592e1870b74f660ffc9c77d485830e530ffb683604051610a3091906117c9565b60405180910390a3505050565b610a45611060565b6001600160a01b0316610a5661092a565b6001600160a01b031614610a7c5760405162461bcd60e51b815260040161024f90611915565b606654604051631945d5e760e21b81526000916001600160a01b031690636517579c90610aad90879060040161178b565b60006040518083038186803b158015610ac557600080fd5b505afa158015610ad9573d6000803e3d6000fd5b505050506040513d6000823e601f3d908101601f19168201604052610b0191908101906115f5565b606654604051631945d5e760e21b81529192506000916001600160a01b0390911690636517579c90610b3790879060040161178b565b60006040518083038186803b158015610b4f57600080fd5b505afa158015610b63573d6000803e3d6000fd5b505050506040513d6000823e601f3d908101601f19168201604052610b8b91908101906115f5565b606554602080850151908301516040516323b872dd60e01b81529394506001600160a01b03909216926323b872dd92610bc9929188906004016116ee565b602060405180830381600087803b158015610be357600080fd5b505af1158015610bf7573d6000803e3d6000fd5b505050506040513d601f19601f82011682018060405250810190610c1b919061145e565b5080518251604051859291907fbc7a322f72742a0c810e1f76615f57ed3a5bbfcbd956d3d451b3158968faace990600090a45050505050565b600054610100900460ff1680610c6d575060005460ff16155b610c895760405162461bcd60e51b815260040161024f906118c7565b600054610100900460ff16158015610cb4576000805460ff1961ff0019909116610100171660011790555b610cbc611064565b606680546001600160a01b0319166001600160a01b03848116919091179182905560408051631f28915760e01b815290519290911691631f2891579160048082019260009290919082900301818387803b158015610d1957600080fd5b505af1158015610d2d573d6000803e3d6000fd5b505050508015610d43576000805461ff00191690555b5050565b610d4f611216565b610d57611060565b6001600160a01b0316610d6861092a565b6001600160a01b031614610d8e5760405162461bcd60e51b815260040161024f90611915565b6066546001600160a01b0383811660009081526067602052604090819020549051631945d5e760e21b81529190921691636517579c916106f4919060040161178b565b6060610ddb611060565b6001600160a01b0316610dec61092a565b6001600160a01b031614610e125760405162461bcd60e51b815260040161024f90611915565b606660009054906101000a90046001600160a01b03166001600160a01b031663e2842d796040518163ffffffff1660e01b815260040160006040518083038186803b158015610e6057600080fd5b505afa158015610e74573d6000803e3d6000fd5b505050506040513d6000823e601f3d908101601f19168201604052610e9c91908101906113c0565b905090565b60685460ff1615610ec45760405162461bcd60e51b815260040161024f9061194a565b610ecc611060565b606580546001600160a01b0319166001600160a01b03929092169190911790556068805460ff19166001179055565b610f03611216565b6066546001600160a01b0316636517579c60676000610f20611060565b6001600160a01b03166001600160a01b03168152602001908152602001600020546040518263ffffffff1660e01b8152600401610f5d919061178b565b60006040518083038186803b158015610f7557600080fd5b505afa158015610f89573d6000803e3d6000fd5b505050506040513d6000823e601f3d908101601f19168201604052610e9c91908101906115f5565b610fb9611060565b6001600160a01b0316610fca61092a565b6001600160a01b031614610ff05760405162461bcd60e51b815260040161024f90611915565b6001600160a01b0381166110165760405162461bcd60e51b815260040161024f9061181a565b6033546040516001600160a01b03808416921690600080516020611a8d83398151915290600090a3603380546001600160a01b0319166001600160a01b0392909216919091179055565b3390565b600054610100900460ff168061107d575060005460ff16155b6110995760405162461bcd60e51b815260040161024f906118c7565b600054610100900460ff161580156110c4576000805460ff1961ff0019909116610100171660011790555b6110cc6110e9565b6110d461115c565b80156110e6576000805461ff00191690555b50565b600054610100900460ff1680611102575060005460ff16155b61111e5760405162461bcd60e51b815260040161024f906118c7565b600054610100900460ff161580156110d4576000805460ff1961ff00199091166101001716600117905580156110e6576000805461ff001916905550565b600054610100900460ff1680611175575060005460ff16155b6111915760405162461bcd60e51b815260040161024f906118c7565b600054610100900460ff161580156111bc576000805460ff1961ff0019909116610100171660011790555b60006111c6611060565b603380546001600160a01b0319166001600160a01b03831690811790915560405191925090600090600080516020611a8d833981519152908290a35080156110e6576000805461ff001916905550565b6040518060c001604052806000801916815260200160006001600160a01b03168152602001606081526020016060815260200160008152602001600081525090565b805161074b81611a77565b600082601f830112611273578081fd5b813561128661128182611a0a565b6119e1565b81815284602083860101111561129a578283fd5b816020850160208301379081016020019190915292915050565b600082601f8301126112c4578081fd5b81516112d261128182611a0a565b8181528460208386010111156112e6578283fd5b6112f7826020830160208701611a31565b949350505050565b600060c08284031215611310578081fd5b61131a60c06119e1565b90508151815261132c60208301611258565b602082015260408201516001600160401b038082111561134b57600080fd5b611357858386016112b4565b6040840152606084015191508082111561137057600080fd5b5061137d848285016112b4565b6060830152506080820151608082015260a082015160a082015292915050565b6000602082840312156113ae578081fd5b81356113b981611a77565b9392505050565b600060208083850312156113d2578182fd5b82516001600160401b03808211156113e8578384fd5b818501915085601f8301126113fb578384fd5b81518181111561140d5761140d611a61565b61141a84858302016119e1565b8181528481019250838501865b838110156114505761143e8a8884518901016112ff565b85529386019390860190600101611427565b509098975050505050505050565b60006020828403121561146f578081fd5b815180151581146113b9578182fd5b60006020828403121561148f578081fd5b5035919050565b6000602082840312156114a7578081fd5b5051919050565b6000806000606084860312156114c2578182fd5b505081359360208301359350604090920135919050565b6000806000606084860312156114ed578283fd5b8335925060208401356001600160401b038082111561150a578384fd5b61151687838801611263565b9350604086013591508082111561152b578283fd5b5061153886828701611263565b9150509250925092565b60008060408385031215611554578182fd5b50508035926020909101359150565b600060208284031215611574578081fd5b81356001600160401b03811115611589578182fd5b6112f784828501611263565b600080604083850312156115a7578182fd5b82356001600160401b03808211156115bd578384fd5b6115c986838701611263565b935060208501359150808211156115de578283fd5b506115eb85828601611263565b9150509250929050565b600060208284031215611606578081fd5b81516001600160401b0381111561161b578182fd5b6112f7848285016112ff565b6000815180845261163f816020860160208601611a31565b601f01601f19169290920160200192915050565b60008151835260018060a01b036020830151166020840152604082015160c0604085015261168460c0850182611627565b90506060830151848203606086015261169d8282611627565b9150506080830151608085015260a083015160a08501528091505092915050565b600082516116d0818460208701611a31565b9190910192915050565b6001600160a01b0391909116815260200190565b6001600160a01b039384168152919092166020820152604081019190915260600190565b6001600160a01b03929092168252602082015260400190565b6000602080830181845280855180835260408601915060408482028701019250838701855b8281101561177e57603f1988860301845261176c858351611653565b94509285019290850190600101611750565b5092979650505050505050565b90815260200190565b6000848252606060208301526117ad6060830185611627565b82810360408401526117bf8185611627565b9695505050505050565b6000602082526113b96020830184611627565b6000606082526117ef6060830186611627565b82810360208401526118018186611627565b91505060018060a01b0383166040830152949350505050565b60208082526026908201527f4f776e61626c653a206e6577206f776e657220697320746865207a65726f206160408201526564647265737360d01b606082015260800190565b602080825260169082015275546869732075736572206973206e6f7420796f75727360501b604082015260600190565b6020808252601c908201527f496e697469616c697a6174696f6e206e6f7420636f6d706c6574656400000000604082015260600190565b6020808252602e908201527f496e697469616c697a61626c653a20636f6e747261637420697320616c72656160408201526d191e481a5b9a5d1a585b1a5e995960921b606082015260800190565b6020808252818101527f4f776e61626c653a2063616c6c6572206973206e6f7420746865206f776e6572604082015260600190565b6020808252818101527f496e697469616c697a6174696f6e20616c726561647920636f6d706c65746564604082015260600190565b6020808252602f908201527f43616e6e6f742068617665206d6f7265207468616e206f6e652075736572207760408201526e1a5d1a081bdb99481858d8dbdd5b9d608a1b606082015260800190565b6000602082526113b96020830184611653565b6040518181016001600160401b0381118282101715611a0257611a02611a61565b604052919050565b60006001600160401b03821115611a2357611a23611a61565b50601f01601f191660200190565b60005b83811015611a4c578181015183820152602001611a34565b83811115611a5b576000848401525b50505050565b634e487b7160e01b600052604160045260246000fd5b6001600160a01b03811681146110e657600080fdfe8be0079c531659141344cd1fd0a4f28419497f9722a3daafe3b4186f6b6457e0a2646970667358221220e123652034ea75a053d6d749e1331aa3e98c5c4d2f80846619787b2c45da778e64736f6c63430008000033",
  "linkReferences": {},
  "deployedLinkReferences": {}
}